:020000040800F2
:10000000F8FF01204DC30908E9C30908297E080843
:10001000E9C30908E9C30908E9C3090800000000A9
:10002000000000000000000000000000E9C3090813
:10003000E9C3090800000000E9C30908D948080815
:10004000E9C30908E9C30908E9C30908E9C30908BC
:10005000E9C30908E9C30908A992080871920808C8
:100060003992080801920808C9910808AD470000B4
:100070009D4700008D4700007D4700006947000054
:100080005547000041470000E9C30908E9C30908D2
:10009000E9C30908E9C30908E9C3090891910808F7
:1000A000E9C309085DAD0908E9C309084DAD0908B0
:1000B0003DAD09082DAD09081DAD0908159A0908BF
:1000C000399A0908599909087D990908E9C3090865
:1000D000E9C30908153C0000053C0000F53B0000A1
:1000E00059910808E9C309080000000055AC090847
:1000F00065AC090845AC09088DAC09082D4700001E
:10010000E9C30908B15F09080DAD0908E9C3090889
:10011000E53B0000E9C309089DAC0908856C0408AB
:100120001947000005470000F1460000DD460000C9
:10013000C9460000E9C30908E9C30908E9C3090879
:1001400000000000000000000000000000000000AF
:10015000B5460000A14600008D460000D53B0000DA
:10016000E9C30908E9C30908E9C30908E9C309089B
:10017000E9C30908E9C30908E9C309080000000048
:10018000E9C30908E9C30908C53B0000B53B000005
:10019000E9C30908E9C30908E9C30908E9C309086B
:1001A000E9C30908E9C30908E9C30908E9C309085B
:1001B000E9C30908E9C30908E9C30908E9C309084B
:1001C000E9C30908E9C30908E9C30908E9C309083B
:1001D000E9C3090879700408E9C30908E9C30908F3
:1001E000E9C30908E9C30908E9C30908E9C309081B
:1001F000E9C30908E9C30908E9C30908E9C309080B
:10020000E9C30908E9C30908E9C30908E9C30908FA
:1002100035AC090825AC090815AC0908E9C309087B
:10022000E9C30908E9C30908E9C309080000000097
:10023000E5610908E9C3090800000000E9C30908ED
:10024000E9C30908E9C30908E9C30908E9C30908BA
:10025000E9C30908E9C30908E9C30908E9C30908AA
:10026000E9C30908E9C30908E9C30908E9C309089A
:10027000E9C30908E9C30908E9C309080000000047
:10028000E9C3090800000000E9C3090800000000F4
:0802900000000000E9C30908A9
:020000040804EE
:10000000124B30B41D686B6A28B943EA01430020E3
:10001000AB6230BC7047AC6A013803EB14440BD0C0
:10002000002303F14002013305EB8202DBB2526888
:10003000834204EB1244F4D3403044EA014405EB1C
:1000400080004460002030BC704700BF501900247D
:10005000037870B42BB30246C0F10105531912F8AE
:10006000014FDBB2002CF9D101335B000E4C0322AF
:100070000B8084F8083484F80924017879B10223CC
:1000800000265A1CE518023354FA82F285F8081447
:10009000DBB282F8086410F8011F0029F1D170BCAE
:1000A00070470223E2E700BF5019002430B5EFF398
:1000B0001181802383F312880A4AD2F80835D2F8D6
:1000C0000C45D2F80805D2F80C55CAB282F3118853
:1000D000013BA84294BF4FF4006000201B1B184452
:1000E00030BD00BF50190024012380F85130704703
:1000F000014BD3F8100570475019002401207047B8
:10010000024BC3F81425C3F8181570475019002482
:10011000024BC3F81C25C3F8201570475019002462
:10012000704770472DE9F843884600294FD047189B
:10013000461E284C802507F1FF39EFF3118185F326
:100140001288D4F80825C9B2D4F80C05D4F80835BB
:10015000D4F80CC581F31188634594BF4FF4006354
:100160000023121A1344012B1AD1012044F014FB6E
:10017000EFF3118185F31288D4F80825C9B2D4F8B9
:100180000C05D4F80835D4F80C7581F31188BB42FE
:1001900094BF4FF400630023121A1344012BE4D0E0
:1001A000EFF3118285F31288D4F80C35D2B216F829
:1001B000011F234483F82415D4F80C350133C3F30D
:1001C0000A03C4F80C3582F311884E45B5D1404678
:1001D000BDE8F88350190024F8B5002390F850507A
:1001E00080F85030D5B10F4A92F8C02F032A17D1AA
:1001F0000D4E00F13C0456F8F47C29462046FFF7EA
:1002000091FF56F8F43C2D1A0444DB1B322B01D825
:10021000002DF2D1B5FA85F04009F8BD0120FCE7C8
:100220001846FAE750190024482A0024002280F8D2
:100230005120D1E790F85020531C0244DBB280F8E3
:10024000503082F83C1090F851200AB1132B00D99D
:10025000C2E77047F8B50C4B0D46144693F8C03F03
:10026000032B0FD1094E56F8F47C002C0ADD2146F1
:100270002846FFF757FF56F8F43C241A0544DB1BC9
:10028000322BF2D9F8BD00BF50190024482A0024AF
:1002900000207047212870B505D0222829D02028B9
:1002A00010D0002070BD0029FBD0072AF9D1184BCF
:1002B00018791C685A799B79087100200C604A7182
:1002C0008B7170BD0029ECD0072AEAD11148104B80
:1002D0000C680E794D79D0F8182589791C601E714B
:1002E0005D719971002ADCD02146D0F81405904741
:1002F000D7E70029D5D0022AD3D1064AD2F8203533
:10030000002BCED00988D2F81C059847C9E700BF5A
:10031000000000245019002400207047002070477E
:1003200003460A2201481A80704700BF08000024D3
:100330000346642201481A80704700BF140000245D
:10034000012901D000207047014BD3F890301847A5
:1003500000000024012901D008F000BE014BD3F8B1
:100360008C30184700000024014BD3F88830184720
:100370000000002410B40B780A46044603F003037F
:10038000012B05D0022B0BD000205DF8044B7047E9
:100390008B8843B9204611465DF8044B0FF050BEE0
:1003A0008B88832BF6D0034B5DF8044BD3F8803059
:1003B000184700BF0000002438B5054B04460D4621
:1003C000DB6F98472946204609F0B6FB002038BD70
:1003D0000000002438B5054B04460D469B6F984736
:1003E0002946204609F0E0FB002038BD000000242B
:1003F000F0B4002452004E1C2746030FB0F1204FEA
:100400004FEA001003F1300503F1370334BF0D55F7
:100410000B5537550234A242EFD1F0BC704700BFF4
:10042000024808B5FFF714FE014808BDB4680A0881
:10043000581D0024024808B5FFF70AFE014808BD10
:10044000C4680A08581D00240B481A220B4B006888
:100450001B680A80C01801D109487047094B08225F
:10046000094910B51C68FFF7C3FF0422074920465D
:10047000FFF7BEFF024810BD00E8F11F08E8F11FBA
:10048000B000002404E8F11FB2000024C2000024E0
:10049000024808B5FFF7DCFD014808BDD0680A082E
:1004A000581D0024024808B5FFF7D2FD014808BDD9
:1004B000DC680A08581D0024042301480B8070479B
:1004C000CC00002400207047C8B182680F4B1AB1DD
:1004D000072203F8EE2C704713F8F00C042143F8C0
:1004E000E42C032843F8E02C03F8DC2C0CBF80221A
:1004F0004FF4807203F8EE1C43E93B227047034B34
:10050000012283F8F82003F8EF2C7047482A0024D2
:100510000E4B07B5D3F8D0205208B2FBF1F3B3F578
:10052000803F02D3012AF7D8F9E799B201905AF037
:10053000D5FD0749074B002201F6D41101980B6045
:1005400003B05DF804EB5AF059BC00BF0000002472
:10055000482A0024C102060808B556F087FD30B1CC
:100560000AF062FC80F00100404240B208BD4FF04A
:10057000FF3008BD38B50D4614460AF055FC48B1A9
:1005800056F012FC054A4FF400730020926C2A606A
:10059000238038BD4FF0FF3038BD00BF2834002421
:1005A00010B5124C94F8390A47F070FC08B11F23BB
:1005B000C380202148F0E8FC0021084640F06CFA96
:1005C00094F9432A0021032048F01EFF10B10AF0DD
:1005D0002BFC08B9012010BD55F006FE0028F9D10A
:1005E00054F8F43CC4F8483A10BD00BF482A00242F
:1005F000154BDB68C3F3022310B4C3F107041A1DC3
:10060000042C28BF0424062A4FF0FF328CBF033B82
:100610000023A240002821EA020101FA03F108DBCD
:1006200009010A4BC9B2034483F800135DF8044B77
:10063000704700F00F000901054BC9B20344197659
:100640005DF8044B704700BF00ED00E000E100E002
:10065000FCEC00E02D4B41F287302D490022D3F80D
:10066000D030A1FB03132B49DB0C10B52A4C013B06
:1006700082B0C4F8580A04F64C20C4F84C1AC4F8E6
:100680005C2AC4F8542AC4F8503A0DF015F9234BEB
:1006900006213720D3F8E82042F02002C3F8E820F2
:1006A000D3F8E83003F020030193019BFFF7A0FF8C
:1006B0001B4B4FF400025A6094F8893A012B14D175
:1006C000D4F84C3A0221174A84F8891AD96841F0C3
:1006D0000101D96099680A40062A06D0B2F5803F28
:1006E00003D01A6842F001021A600F4B00200F4934
:1006F000D3F8E82F03F22454C3F82005C2F81002FF
:10070000C3F81805C2E9811402B010BD000000242E
:1007100083DE1B4300140040482A00240044025892
:1007200000E100E00700010050190024E03400243B
:1007300003689B0AA3F58013522B00D970470E4A19
:10074000D35C0D2BFAD803EBC30200290B4903EB52
:10075000420370B584B014BF0026022642790125F9
:1007600001EB830000246946CDE90065CDE9024430
:100770000CF04AFF04B070BD78E80908E03C0024A2
:100780000C4B4FF6FF71D3F8D02010B50446520839
:100790005AF0A4FC00212046FFF7CAFF0649074B88
:1007A0002046002201F6D8110B60BDE810405AF037
:1007B00025BB00BF00000024482A002485A00508AE
:1007C0004309012200F01F008AB0023B02FA00F048
:1007D000082B11D8DFE803F0665A4E42362A1E1263
:1007E0000500364BD3F8F4200243C3F8F420D3F8C5
:1007F000F42010400190019B0AB070472F4BD3F8B2
:10080000E0200243C3F8E020D3F8E0201040059038
:10081000059BF1E7294BD3F8E4200243C3F8E42019
:10082000D3F8E42010400290029BE5E7234BD3F875
:10083000D4200243C3F8D420D3F8D420104006902B
:10084000069BD9E71D4BD3F8DC200243C3F8DC201C
:10085000D3F8DC2010400890089BCDE7174BD3F865
:10086000D8200243C3F8D820D3F8D82010400990EC
:10087000099BC1E7114BD3F8EC200243C3F8EC20ED
:10088000D3F8EC2010400390039BB5E70B4BD3F853
:10089000E8200243C3F8E820D3F8E8201040049091
:1008A000049BA9E7054BD3F8F0200243C3F8F020DE
:1008B000D3F8F02010400790079B9DE700440258B2
:1008C0002DE9F04FDFF8D8B0294D5C462DED068BB1
:1008D0008BB0CDE9080106920FCD0FC40FCD0FC428
:1008E000244B95E8070093F8163684E80700042B9C
:1008F00000F29F81DFE813F0DF019D019801050000
:100900000E029FED1D8ADFED1D9A1D4A1D4B0698B4
:100910001D49002818BF13461C4ACBE9062139EEB1
:10092000887ADFED1B7AF5EE006ACBF824300023DD
:1009300028EE278AB0EE679ADFF8689086EE87AADD
:100940000493DFED148A144B0793099B049A934296
:1009500000F06481079B13F8018B0793054B434418
:1009600093F81B46002C00F0698100230B481EE021
:10097000CCE80908403B0024ACC5A737ACC5A73676
:10098000D9F80708B1490708454F0708E5F80708EF
:100990006F12833A00007A446641002478410024B3
:1009A000080000203C000020152B00F0478103EBDD
:1009B00043025D000133815CA142F5D1C54B1A446D
:1009C00092F83916002900F07081204640F04EF967
:1009D00006460590304640F087F902780392002AD7
:1009E00040F02C8108F10108BA4B4FF0030A1D4476
:1009F0005FFA88F885F878A685F87986002E00F0E9
:100A00001D81270904F00F03013F062F00F24781E3
:100A1000B14C04EB4702B2F8800040FA03F212F046
:100A2000010200F03F8101252744AC4E05FA03F393
:100A3000013B18405BF0BCFA97F89010A84A0144BB
:100A400006EBC10787F806A087F8078056F8313013
:100A5000C9F814701A44059B920A93F8088004EBB5
:100A60004204B4F89800FFF7ABFEBF8856F8310097
:100A7000002F38D0039A0395039D02F0070351001D
:100A80004FF00F0C05FA02F6D4089B004FF0020E4F
:100A900037420AFA01F50CFA03FC00EB840402F178
:100AA000010208FA03F30EFA01F119D0D0F808E0B8
:100AB0002EEA050EC0F808E0D0F804E02EEA06069B
:100AC0004660C66826EA0506C660266A26EA0C0C59
:100AD00043EA0C032362036823EA05030B43036024
:100AE00037FA02F3C8D1069B002B00F0C480794B83
:100AF000B3F8143607EE903AF8EEE77AFCEEE77AB0
:100B000017EE904A059B774A1B6893420FD002F577
:100B1000806293420BD0744902F58042934218BF21
:100B20008B4204D002F58062934240F0B18012F013
:100B3000A1FA6E4BDA69C2F302226C494FF6FF73D9
:100B40006B4D0969C1F3C03142EAC1020699AA5C42
:100B500000FB02F0B0FBF4F21A44120CB0FBF2F20C
:100B6000002977D05B49B2FBF4F491F81616A3B2D2
:100B7000042975D007EE902AF8EE676A66EE887A47
:100B800028EEE77A5349C9ED027A91F81706A6EEE6
:100B9000A97A0899019048460091059989ED037A50
:100BA00036F0FEFC049900296FDDD9F80430DBF83B
:100BB0003820934266D001297AD0DBF85020934246
:100BC00060D0022961D0DBF8682093425AD0032913
:100BD0005BD0DBF88020934254D0042955D0DBF859
:100BE000982093424ED005294FD0DBF8B020934295
:100BF00048D0062949D0DBF8C820D31A0A4618BFC6
:100C00000123013289F8103009F1180911460492C4
:100C10000122082909F8072C7FF497AE35480BB05C
:100C2000BDEC068BBDE8F08F9FED338AF0EE489A5D
:100C30006BE69FED328AF0EE489A66E6304A002075
:100C4000304BCBF81C20CBF824300BB0BDEC068B1E
:100C5000BDE8F08F1F491C4691F81616042989D16A
:100C600007EE904A07EE102AF8EE677AF8EE476A28
:100C700067EE897A84E7FAFE4A7AFCEEE77A17EEA5
:100C8000904A3FE700230A46BBE701230A46B8E73C
:100C900012F002FA154BDA69C2F302124DE7C9F8F5
:100CA000142020E7C9F814201DE70E46059191E6AF
:100CB000049B1A46A5E70023134A01219FED138ADE
:100CC0000893134BF0EE489A0691CBE906320D4B90
:100CD00025E600BF403B002478E80908E4410024F1
:100CE0000000FEA7000001400040014000440258FF
:100CF00050690A0808000020282930386F1203398B
:100D00008D4C0708D9F80708454F07086F12833A3A
:100D1000E5F807080023064A01219FED068A08939B
:100D2000054BF0EE489A0691CBE90632034BF6E507
:100D3000454F070800000000E5F80708D9F8070844
:100D400000284DD0274A2DE9F84F0446264B00686D
:100D500003449B0A02EB4303B3F89800FFF730FD0E
:100D6000B4F804C02368BCF1000F37D000204FF066
:100D7000010B4FF0030A4FF00F0900F007020BFAC6
:100D800000FE45000224C7081CEA0E0F4FEA82024B
:100D90000AFA05F603EB870700F1010009FA02F8E9
:100DA00004FA05F501FA02F215D09C6824EA06045B
:100DB0009C605C6824EA0E045C60DC6824EA06043B
:100DC000DC603C6A24EA080414433C621A6822EAA4
:100DD00006022A431A603CFA00F2CED1BDE8F88F31
:100DE000704700BF78E809080000FEA700284CD033
:100DF000264A2DE9F84F0446254B006803449B0A18
:100E000002EB4303B3F89800FFF7DAFCB4F804C030
:100E10002368BCF1000F36D000204FF0010B4FF0DB
:100E2000030A4FF00F0900F007020BFA00FE45001D
:100E30000224C7081CEA0E0F4FEA82020AFA05F6DE
:100E400003EB870700F1010009FA02F804FA05F53F
:100E500001FA02F214D09C6834439C605C6824EA76
:100E60000E045C60DC6824EA0604DC603C6A24EA68
:100E7000080414433C621A6822EA06022A431A60F4
:100E80003CFA00F2CFD1BDE8F88F704778E8090846
:100E90000000FEA7004870474442002470B4204D73
:100EA00006460468E36931EA030323D0D5F8243AFF
:100EB0009B1AB3F1007F23681FD25807F2D5E3696C
:100EC0001B05EFD54FF4006220230021032022628E
:100ED000226822F4D0722260A26822F00102A2608D
:100EE000C6F8803086F87C10C6F88430C6F88830A2
:100EF00070BC7047002070BC704723F4D073202270
:100F0000002103202360A36823F00103A360C6F837
:100F1000802086F87C10C6F8842070BC704700BF23
:100F2000403B0024F8B5474E96F8284A04EB4403AA
:100F3000650006EBC30393F82C3A032B77D8DFE860
:100F400003F0492A1F02254406EBC505D5F8303ABF
:100F5000002B6ED196F88C2A944268D0013404F0AC
:100F600003018A4286F8281A61D001EB410402226B
:100F7000184606EBC404C4F8303A84F82C2AF8BDAD
:100F80002B1906EBC303D3F8302A72B1013A0020C3
:100F9000C3F8302AF8BD2B1906EBC303D3F8302A67
:100FA000002AF3D1022283F82C2A254406EBC5053A
:100FB00095F8383A013BDBB285F8383AF3B1224B69
:100FC0000120D3F8D42002F2E733B3FBF2F3C5F8E3
:100FD000303AF8BD49F046FB48B31B4A42F20F7362
:100FE0002C440121D2F8D42006EBC404134484F825
:100FF0002C1AB3FBF2F3C4F8303AF8BD124B601C64
:101000000327D5F8341AD3F8D420384096F88C4A00
:10101000531E85F82C7A001B0B4418BF01209A42FE
:10102000B3FBF2F188BF0020C5F8301A30B90120B7
:10103000F8BD013B0020C5F8303AF8BD0139C5F8CC
:10104000301AF8BD403B00240000002490F83C30EA
:10105000012B00F0BE810123F0B580F83C30142A4A
:1010600054D8DFE812F058005300530053009F009B
:101070005300530053007501530053005300E30025
:101080005300530053002601530053005300150032
:101090000368D1F808C01D6A0F6825F48015A64EB4
:1010A0001D62B3421A6AD3F804E05C6D22F40012A8
:1010B00024F4E04442EA0C5244EA07240ED09F4D47
:1010C000AB420BD006F5804605F58045AB4218BF14
:1010D000B34203D005F58065AB4204D12EF4003E47
:1010E0004D694EEA852E4D68C3F804E05C65DD6508
:1010F0001A625C6D0D6944F400645C65596D21F4FD
:10110000806159655A6D42EA05225A65002380F8CC
:101110003C301846F0BD03688E681D6A0F6825F0E4
:101120000105874C1D621A6A5D6822F00202D3F83D
:1011300018C03243804E0CEA0404B34244EA070468
:101140000ED006F58066B3420AD07E4F06F5804683
:10115000B34218BFBB4203D006F58066B3420BD141
:10116000CE6822F008028F6925F4407532434E693B
:101170003E4322F0040235434E685D609C615E632D
:101180001A629C690D6944F008049C61996921F018
:10119000040199619A692A439A61002380F83C30DE
:1011A0001846F0BD03688E681D6A0F6825F01005AB
:1011B000654A1D621C6AD3F804C024F020049D69AE
:1011C00044EA06145C4E2A40B34242EA072200F089
:1011D00002815A4DAB4200F0FE805A4E5B4DAB424D
:1011E00018BFB34203D005F58065AB4206D14E6906
:1011F0002CF4406C8D6935434CEA850C4E68C3F87D
:1012000004C09A619E631C629C690D6944F4006489
:101210009C61996921F4806199619A6942EA052289
:101220009A61002380F83C301846F0BD0368D1F87D
:1012300008C01D6A0F6825F480553F4E1D62B342F9
:101240001A6AD3F804E0DC6922F4005224F4E6447C
:1012500042EA0C3244EA07240ED0384DAB420BD0A0
:1012600006F5804605F58045AB4218BFB34203D072
:1012700005F58065AB4204D12EF4804E4D694EEAEF
:10128000851E4D68C3F804E0DC611D641A62DC69E8
:101290000D6944F40064DC61D96921F48061D9618D
:1012A000DA6942EA0522DA61002380F83C30184608
:1012B000F0BD0368D1F808C01D6A0F6825F48035B9
:1012C0001D4E1D62B3421A6AD3F804E05C6D22F42D
:1012D000003224F0700442EA0C4244EA07040ED0C3
:1012E000164DAB420BD006F5804605F58045AB4266
:1012F00018BFB34203D005F58065AB4204D12EF48C
:10130000803E4D694EEA052E4D68C3F804E05C65E9
:101310009D651A625C6D0D6944F008045C65596D49
:1013200021F0040159655A6D2A435A65002380F85B
:101330003C301846F0BD00BF0000014000040140F1
:101340008CFFFEFF00400140FF8CFFFE0044014087
:101350000368D1F808C01D6A0F6825F48075264E11
:101360001D62B3421C6A5D68DA6924F4007422F0DD
:10137000730244EA0C2442EA070234D006F5806680
:10138000B34230D01D4F1E4EB34218BFBB4203D0F4
:1013900006F58066B34206D125F440574E698D6943
:1013A000354347EA05154E685D60DA61DE631C620D
:1013B000DC690D6944F00804DC61D96921F004019D
:1013C000D961DA692A43DA61002380F83C30184693
:1013D000F0BD0220704724F08004CE6844EA061471
:1013E00024F0400403E724F40064CE6844EA0624B1
:1013F00024F48064D0E700BF0000014000400140B9
:10140000004401402DE9F04FDFF8C0B18DB0542207
:1014100000210BF529605DF0F9F80BF6E4204FF49C
:1014200031725E495DF080F89BF8A83D3BB19BF8B6
:10143000A92D9BF8AA3D8BF8902A8BF8913A9BF83E
:10144000AB3D1BB1BBF8AC3DABF8B43A9BF8B13D3A
:101450001BB1BBF8B23DABF8A83A9BF8AE3D3BB12F
:101460009BF8AF2D9BF8B03D8BF89C2A8BF89D3AEA
:101470004B4B00254B4A1B8812881B094A4C4B4991
:10148000C3EB12102288CBF8C43D1309484C494FD6
:10149000494ECBF8C03D91FBF0F1CBF8C81D0DE0F3
:1014A000052D00F0DA81062D00F0A38220780028B7
:1014B00040F0A98101350C34072D2BD0042DEFD13C
:1014C00002204FF48021B8460246EC234FF0070E6D
:1014D0004FF0010C607003FB02B32078C4F8048065
:1014E000D3F8CC2B84F80AE00A4384F809C0C3F887
:1014F000CC2B0028DED046F0C9FCEB1DDBB210B1CE
:1015000000228371C2710135032147F03DFD0C3487
:10151000072DD3D1294C0025DFF8B490DFF8B48033
:10152000274FDFF8B4A0274E54F8083C002B00F0FA
:101530000681D4F8E020002A00F00181EC2223602B
:1015400002FB05B2D2F8401B41F00201C2F8401B79
:1015500099689A6801F0040102F008020A43DA6807
:1015600046D0920105D5A18A40F20112914200F0C5
:10157000F5829A68520700F1DD829A68120708D551
:101580009A68910705D499680F4A0A4042F02002F0
:101590009A600C21DBF8240A26E000BF24E9090840
:1015A00020E8F11F40E8F11F60E8F11F80380100DA
:1015B000D0450024000084CB78E809082C4600249C
:1015C000200882E000210240C0FFFF7F403B002452
:1015D0001CF800FC300882E0E03000FEDBF8242A32
:1015E000121A052A00F2D4829A680A42F6D1DA6801
:1015F00042F400122046DA600BF0B8FF002800F039
:101600009282236840F2FF7C9E490022D3F804E0D6
:101610000EEA0101DFF888E25960C3F800C099685A
:10162000DFF880C221F0A0419960996841F0005133
:101630009960D96801F08021D960D96841F00041F2
:10164000D960196901EA09011961596901F040413C
:101650005961996901F078419961196A01F07C41F9
:101660001962596A01F07C415962D3F8B01001F057
:101670007C41C3F8B010D3F8B41001F07C41C3F83A
:10168000B410D3F8B81001F07C41C3F8B810D3F807
:10169000BC1001F07C41C3F8BC10196B01EA0801D1
:1016A0001963596B39405963996B39409963D96B08
:1016B00001EA0E0E7449C3F83CE08B42D3F860E0B7
:1016C0001A66D3F864E05A66D3F868E09A66D3F8ED
:1016D0006CE0DA66D3F8A02002EA0C02C3F8A0207E
:1016E000D3F8A42002EA0C02C3F8A420D3F8C02047
:1016F00002EA0C02C3F8C020D3F8C42002F0F8229A
:10170000C3F8C42000F08B81B34200F088815F4BA6
:101710009B68DB0704D45E4B9A6802EA0A029A606F
:10172000EC22002302FB05B2C2F8443BC4E91733A4
:10173000C2F8403B84F85030002840F06181013508
:10174000EC34032D7FF4F0AEDFF850914FF0000A37
:101750004D46D046CDF81490D5F8E830002B40F037
:10176000698108F10108EC35B8F1030FF4D10026C6
:10177000DDF81490DFF830813546464FDFF82CA1B4
:10178000D9F8E830002B00F02B81D9F808403E4A08
:10179000944200F04D81444500F04A813C48826803
:1017A000A16849072ED499F8581001292AD002F0CF
:1017B0001F020121092A89F8581000F2C88140F25D
:1017C0002121D140C90740F1C281A16811F0010176
:1017D00040F08480D4F808E0DFF8D4C01EEA0C0F93
:1017E00042D0EC2303FB05B5D5F8403B85F83C1B04
:1017F00043F01003C5F8403BD5F8443B43F00103E8
:10180000C5F8443BFEE7244A002301331E2B3FF476
:1018100051AE12F80C1F8842F7D194F901104A1EFC
:1018200049B103EB430106EB810191F871131141BA
:10183000C80700F1E6800C211848002201FB036371
:101840000168EC3029B193F871131141C90700F117
:10185000C0830132032AF3D12CE602204FF4002189
:10186000DFF85080024630E6A168394041F00101BE
:10187000A160DBF824CA8168C9062CD044452AD16E
:101880002CE000BF00F8FFFF00200240006002587B
:1018900000630258C0FFFF7FE8EB090824460024DC
:1018A00020F8FFFF0000F0FF00210240002302406B
:1018B0003F0000800000B8CFA168C80704D4A16829
:1018C000394041F00101A160DBF8241AA1EB0C01C1
:1018D000022900F22C852168C907EDD5EC20B64914
:1018E000444500FB05B0D0F840CB0CEA010141F4BF
:1018F0008071C0F8401B00D142B9EC2202FB05B256
:10190000D2F8401B21F48011C2F8401BEC2202FBEC
:1019100005B2D2F8401B11F4805140F0D682C2F8D3
:10192000441B4FEA530ED9F854009908A34A0EF00D
:10193000773E01F03331C263DA088E44A04902F0E9
:101940001132A3EB0E0E01649E4B1C21AEEB020E76
:10195000C364FF2321600EEB1E1E626800210EF09F
:101960000F3E42F0100289F8581004F14001626005
:10197000E268BEFBF3F322F0030CD9F83420C3EB8A
:1019800003234CEA0202DFF864C2AEEB0303E26019
:101990000CEB46020AF090FFD9F8082093683B4010
:1019A00043F004039360002840F08483D9F8E830C2
:1019B000854A59089C0801F07731D80804F033347F
:1019C00000F0113021445B1A1B1A03EB131303F0D0
:1019D0000F33A2FB0312D209C2EB02229B1A1E4450
:1019E000013509F1EC09032D7FF4CAAE0DB0BDE855
:1019F000F08F02204FF40031DFF8F481024664E5F5
:101A0000FEE74FF00C0C4FF0010E50B20CFB0363DD
:101A100093F87813D3F874830EFA01F155E56B4B04
:101A20009B68B2681343DA073FF57AAE684B73E6FA
:101A30005046B4E6A8880426FEF7C2FED5F8E83082
:101A4000FF22AE6159089C0801F07731D80804F0F4
:101A5000333400F01130214403245B1AEC211B1AAB
:101A6000286801FB08B103EB1313A8604FF4403062
:101A700003F00F33E8600820B3FBF2F2C2EB02225E
:101A8000286101209B1A002268612B624FF4805369
:101A90006877A8622A7785F8242085F84020069286
:101AA000C5E90B22C5E90D43D1F8403B002B00F0FE
:101AB0000782AF68BB68980003D5BA68454B1340EE
:101AC000BB60BB6813F0805F434B3ED1B9681A46D8
:101AD0000193424BD2F8D0200B404149B2FBF1F2C6
:101AE00043F08053BB600692069B2BB1069B013BE3
:101AF0000693069B002BF9D1BB68D90040F1D08139
:101B00000024BB685A0775D5EC2303FB08B3D3F850
:101B1000403BEC2303FB08B3D3F8402B42F0100208
:101B2000C3F8402BFEE7EC23012203FB05B3C3F807
:101B3000402B66E59A6891073FF51FAD9968294AE1
:101B40000A4042F010029A6017E50193D4E7EC22B4
:101B5000002302FB05B585F83C3B53E61A685006A6
:101B600006D4214A01E0013A12D019684906FAD593
:101B700040221A609A68500708D59A68900705D4E1
:101B80009968184A0A4042F010029A60042101E55F
:101B9000EC22012002FB05B2D2F8401B41F01001FB
:101BA000C2F8401BD2F8441B0143C2F8441BDA6858
:101BB00042F40012DA6024E5FEF0FFFFA995040864
:101BC000A59504089195040881808080002002403A
:101BD00000230240C0FFFF5F00000024C0FFFF6F32
:101BE000400D0300C0FFFF7F00DC0C0080F70024E5
:101BF000000052C7EC2303FB08B3D3F8402BD606F2
:101C000087D4D3F8402B22F4817242F00202C3F849
:101C1000402BBB68DB0713D4AF4B9F4200F07D83A2
:101C200003F580739F4200F07883AC4B9B68D80724
:101C300006D4AB498B68EA6823F47C1313438B60AA
:101C4000A84A41F203031268B3EB124F2A69C0F0AD
:101C5000A281AB6B697F134395F8242043EA41339B
:101C600043EA0243012A03D1AA6A013A43EA424302
:101C7000EA6A22B102F47872296B0A431343F968C5
:101C8000994A0A401343FB60B868BB6800F004003F
:101C900003F00803184300F03381AB686A69012A36
:101CA00000F0E9821A6B22F00F021A63EC2707FB9F
:101CB00008B7D7F8403B07F5346623F0030343F039
:101CC0000103C7F8403B002C40F0958195F858304F
:101CD0000794012B00F08E8105F108031846049348
:101CE000012385F858300BF041FC002840F07C813E
:101CF000D7F8401B7D4A7E4B0A407E4942F00202E3
:101D0000C7F8402BAA689068034043F000439360F3
:101D10009368002BC0F27081EC220020764F02FB0A
:101D200008B201460290D2F8403B23F0030343F08F
:101D30000103C2F8403B85F8580006E0029B0C37CF
:101D40000133072B029300F06D817B7A002BF5D0D5
:101D500097F901304345F1D1684B00224E1C87F8BA
:101D600008A003EB810095F858300AF101010892B0
:101D7000012BD0F8D8447A68039100F02981AB6830
:101D80000120996885F85800490700F11281C2F3D3
:101D9000130EBEF1000F40F0B682C2F3846C910EB8
:101DA00000FA0CF0D3F81CA04FEA941903F1300CA0
:101DB00004F01F044AEA000A09F00C004FF01F0962
:101DC000C3F81CA001EA090150F80CA009FA04F9B3
:101DD000A1402AEA090949EA010140F80C10986873
:101DE000996800F0040001F00801014345D1D10DCC
:101DF000C2F3045A03F114044FF0070901F004017F
:101E00004FF0060C09FA0AF908590CFA0AFCDFF837
:101E1000D4A020EA090040EA0C000851DAF80010CA
:101E200001F07041B1F1805FD96800D0D968196EB6
:101E3000900601F0F841B1EB826F03D1196E21F0E9
:101E400000411966596E01F0F841884203D1596E7C
:101E500021F000415966996E01F0F841884203D1A2
:101E6000996E21F000419966D96E01F0F8418842DF
:101E700003D1D96E21F00041D9669968C80708D40A
:101E8000D3F8C010002A21EA0E01C3F8C010C0F236
:101E9000C58100233146DDF80CA085F858304DE7A8
:101EA000EC23012403FB08B3D3F8402B42F01002CB
:101EB000C3F8402BD3F8442B2243C3F8442B20E62D
:101EC000C1F8443B85F85830F3E5D2F8441B21F0C3
:101ED0000601C2F8441B24E50020024000600258BD
:101EE000006302580010005C03C0F0FFFDEEFFFF2E
:101EF000C0FFFE3F00F8C325D045002478E809085C
:101F0000FB68B84A297F1A406B6B42EA813295F828
:101F1000401013430129FB6000F025823B6923F048
:101F200001033B613A69EB6B22F07042AE49134307
:101F30008F423B6100F00F82AC4B9F4200F00B825E
:101F4000AB4B9B6813F4403F14BF01230023002BCD
:101F500000F0D58011F070F8EB68B3F5003F00F0A9
:101F6000CA80B3F5403F00F0B680B3F5803F00F083
:101F7000C280A04A41F203031268B3EB124FC0F0D3
:101F8000A1809D4B984240F29780AB689A6842F4DA
:101F900080729A6082E6102A7FF45BAE95F8242066
:101FA000687F1104AB6B41EA40310B4343F01C03E3
:101FB00058E6EC2303FB08B3D3F8402B42F0200291
:101FC000C3F8402BEC23002203FB08B383F83C2B1F
:101FD000FEE793F878134FF0010CD3F8748350B2F6
:101FE0000CFA01F1FFF771BA336887F83C4B43F004
:101FF00010033360FEE795E5079B01330793079BCA
:102000008B42FFF485AEEC23002103FB08B3D3F829
:10201000402B83F83C1B22F0120242F01002C3F85E
:10202000402BE7E7754B5FFA88F6022043443146C0
:1020300093F9142047F0E8F947680446384647F01A
:1020400059FA01994FF0240C431E0CFB031393F82B
:10205000F41000297FF4CAAC01364FF0060C83F867
:10206000F56083F8F4C000283FF4C0ACA3684FF4D7
:1020700080644FF48072EF662B674FF400664FF474
:1020800080334FF40057EC6705F16C046967A9676A
:10209000C5E92223C5E9206755F00CFF20460AF068
:1020A000B5FD20460AF094FE049B6C65C5F8A4308B
:1020B000FFF757BBFFF7A6BBAB689A6822F48072A4
:1020C0009A60EBE54E4B984207D8AB689A6822F4C9
:1020D00040729A60E2E580084BE74A4B98423FD94C
:1020E000494B9842AB689A6824D822F4407242F473
:1020F00000729A60D2E51B0CB0FBF3F039E7434A5B
:10210000936D03F44033B3F5803F5BD0B3F5003FEC
:102110004BD0002B5FD0EB68B3F5101F43D00DD828
:10212000B3F5E01F3DD023D9B3F5001F7FF421AFF5
:1021300040091EE742F440729A60AFE5B3F5201FF4
:102140004ED0B3F5301F7FF414AF2A4A41F2030397
:102150001268B3EB124FAFD2294BB3EB102FB4D2AE
:10216000AB689A6822F4407242F480729A6095E5F6
:10217000B3F5801F07D00BD9B3F5A01F03D0B3F57B
:10218000C01F7FF4F6AE9B0C5B00B0FBF3F0F0E6F3
:10219000B3F5002FF7D023F40022B2F5802FF2D050
:1021A000E7E60009E5E68009E3E6D36C13F0405367
:1021B0000FD0B3F1805F0AD0154AB3F1005F08BFBA
:1021C0001046A8E709A80BF073FD0B98A3E7114888
:1021D000A1E711489FE709A80BF016FE09989AE7B6
:1021E000C009C6E6FCBFFFFF0020024000210240FC
:1021F000006302580010005C002D3101E848002403
:1022000021BCBE0041787D0181F0FA0200440258F1
:1022100000127A0000093D000090D0035A498B4219
:1022200031D001F580718B422DD0584958488468CF
:10223000896804F0E07CC94301F0010100293FF402
:10224000B8AE54498A423FD053498A422CD05349B0
:102250008A427FF41EAE64023FF51BAE4B4A9342A6
:102260007FF417AE836823F0E07343EA0C0343F472
:10227000800383600DE6196B2A6A21F00F01013A91
:102280000A431A6312E546498C680846A1F5407175
:1022900004F0E07CD1F80890D1F808E149EA0E0199
:1022A000C94301F00101C9E7E2013FF5F2AD374A48
:1022B00093427FF4EEAD836823F0E07343EA0C03AE
:1022C00043F080738360E4E521023FF5E2AD2F4ADD
:1022D00093427FF4DEAD019B8268D3F8D030314960
:1022E00022F0E072B3FBF1F342EA0C0C5A004CF41A
:1022F00000038360089202E0089B013B0893089B5F
:10230000002BF9D1C5E592FAA2FCBCFA8CFC910E27
:102310000CF01F0C00FA0CF044E51B4B224A9B68A2
:1023200092681343DE073FF58BAC1D4982E4EC2332
:10233000002203FB05B5D5F8403B85F83C2B43F064
:102340001003C5F8403BD5F8443B43F00103C5F802
:10235000443BFFF757BA124B9B6813F4403F14BF3E
:1023600001230023F3E5D5E91123E96C013A2E6D31
:102370000B43396943EA02430C4A33430A4013438F
:1023800043F001033B61CDE50020024000600258AC
:1023900000630258000084CB000052C70000B8CF91
:1023A00000230240400D0300002102401EF800FC03
:1023B0002DE9F041D0F800E00C46DFF8588084B0F9
:1023C000DEF804501746DFF850C0194605EA080544
:1023D000DDF82880064603932C43424644EA0C0C61
:1023E000CEF804C009F020F878B931680246039BA2
:1023F00030468F628021CDF8008009F045F8003822
:1024000018BF012004B0BDE8F081012004B0BDE890
:10241000F08100BF009800FC00200181F8B5134F47
:1024200004460D460AE09B69DB0602D508F0BCFFB6
:10243000D0B9D7F8243A5B1B0A2B08D823682A4660
:102440000A2120469E69B606EDD50020F8BD636CD2
:102450002021002201200B4384F84020636484F88B
:10246000411084F84220F8BD0120F8BD403B002413
:102470002DE9F041D0F800E00C46DFF8588084B038
:10248000DEF804501746DFF850C0194605EA080583
:10249000DDF82880064603932C43424644EA0C0CA0
:1024A000CEF804C008F0C0FF78B931680246039B3B
:1024B00030468F624021CDF8008008F0E5FF0038FB
:1024C00018BF012004B0BDE8F081012004B0BDE8D0
:1024D000F08100BF009800FC00200180F8B5364C68
:1024E00005460821D4F8CC0DD4F8246A09F06EF919
:1024F00000B1F8BDD4F8101ED4F8CC0D090409F0D1
:1025000005F90028F5D1D4F8CC3D4FF0FF31082271
:1025100059629A6201301F28FCD9DA6A00202749E3
:1025200041F2331722F0FF0242F03302DA62986080
:102530001846DA68114041F288320F433321DF60D8
:1025400009F04AF80028D4D1D4F8CC2D84460746A7
:1025500040F22A5104E0D4F8243A9B1B01331ED0E8
:10256000536B0B42536B09D11B03F4D40028F2D1F7
:10257000D2F880700120D2F880C0ECE7190714D49B
:10258000536B9B070ED4506B10F0200010D19CFAB7
:102590008CF33FBA0A499163C5E90037F8BD4FF0A3
:1025A0000040F8BD02209063F8BD08209063F8BD9C
:1025B00020209063F8BD00BF403B0024C0E0FEFF38
:1025C0003A0F001870B5114C41F20D13104D41F245
:1025D0008832D4F8101ED4F8CC0D0E040D2186607C
:1025E000C66835402B43C36008F0F6FF38B1D4F815
:1025F000002E034600201343C4F8003E70BDD4F8FB
:10260000CC3D5869C0F3432070BD00BF403B00245F
:10261000C0E0FEFFF8B500286FD0474C94F8FC3DB1
:10262000012BDEB255D18B18D4F81C5E0027AB42CB
:10263000C4F8007E50D8D4F8043E4FF0030ED4F80E
:10264000CC5D4FEA422C012B84F8FCED4FF00003E7
:10265000EF6218BF49024FF0FF37C4F8F4CDC4F859
:10266000F00D6F62C5F828C001331F2BFCD9EB6A4F
:10267000012723F0FF03BA4243F09203EB62EB68B9
:1026800043F04003EB60A8652F6540D982232B4FB0
:102690002846C4F8F83D41F21213A9601221EA68F5
:1026A000174041F288323B43EB6008F095FFD8B108
:1026B000D4F8CC1D0122224D00238D63D4F8001ED6
:1026C0000843C4F8000E304684F8FC2DC4F8F83DE9
:1026D000F8BD02263046F8BDD4F8003E304643F03F
:1026E0000073C4F8003EF8BDD4F8CC2D0646D36B79
:1026F000304643F49573D363F8BD0F4A0126D2F8F0
:10270000003E304643F00063C2F8003EF8BD81232E
:102710000A4F2846C4F8F83D41F21113A96011216F
:10272000EA68174041F288323B43EB6008F054FFFF
:102730000028D9D0BCE700BF403B0024C0E0FEFF2A
:10274000FF0FE01FF8B50D4617461E4608F06CFB5C
:1027500018B3EB0621D1124C4FF0010C4FF400736B
:10276000394628463246C4F8785EC4F8806EC4F80C
:1027700068CEC4F87C3EFFF74DFF70B9D4F8683ED0
:10278000002BFBD154F072FC0028FBD0054B00203D
:1027900053F8F42CC3F8482AF8BD4FF0FF30F8BDC9
:1027A000403B0024482A0024F8B50121514D12F085
:1027B0001F04C5F86C1E6FD14FEA432CBFF34F8F37
:1027C000BCF1000F08D002EB0C0711464A4EC6F8C8
:1027D00068122031B942FAD1BFF34F8FBFF36F8F28
:1027E000002A7ED095F8FC1D012953D103EB000E81
:1027F000D5F81C6E00270146B645C5F8007E68D89E
:10280000D5F8046E4FF0030ED5F8CC0D012E4FF025
:10281000FF3685F8FCED18BF4902C762C5F8E82D00
:102820004662C5F8ECCDC0F828C001341F2CFCD995
:10283000C46A012624F0FF04B34244F09004C46249
:10284000C46844F04004C4608265066526D9A022AD
:102850002A4C41F21913C5F8F82D41F288328160F3
:10286000C1680C4019212343C36008F0B5FE03463C
:102870003BB3D5F8CC0D0121214C002284632A20E2
:10288000D5F8004E2343C5F8003E85F8FC1DC5F879
:10289000F82DF8BD2A20F8BD0920F8BD9022174C6C
:1028A00041F21813C5F8F82D41F288328160C168F1
:1028B0000C4018212343C36008F08EFE0346002B12
:1028C000D7D1D5F8CC2D1846D36B43F48D73D36391
:1028D000F8BDD5F8003E2A2043F00073C5F8003E4D
:1028E000F8BDD5F8003E2A2043F00063C5F8003E4D
:1028F000F8BD00BF403B002400ED00E0C0E0FEFF5B
:10290000FF0FE01F70B50D4614461E4608F08CFA06
:10291000B0B133462A4620460021FFF745FF78B97B
:10292000094AD2F86C3E002BFBD154F09FFB0028E3
:10293000FBD0064B002053F8F42CC3F8482A70BD96
:102940004FF0FF3070BD00BF403B0024482A0024F8
:10295000134B30B4D3F8780E0025D3F8802ED3F87B
:102960007C4E20F01F01C3F8685E04FB0202521A7D
:10297000BFF34F8FAA420DDD013A01F12003094850
:1029800022F01F021A449342C0F85C12194603F168
:102990002003F8D1BFF34F8FBFF36F8F30BC704768
:1029A000403B002400ED00E00B4BD3F8682E3AB119
:1029B000D3F8702E00210132C3F8681EC3F8702EC0
:1029C000D3F86C2E3AB1D3F8742E00210132C3F83B
:1029D0006C1EC3F8742E7047403B0024002800F0A2
:1029E000FF802DE9F04F848885B0B4FA84F3202B62
:1029F000C3F11F0200F099807A4E4FF00045DFF8D6
:102A00000C82164435FA03F308EB820296F8186537
:102A1000C2F8841E019605D0734A116821EA0301A9
:102A2000116093600368002C79D00021DFF8E0E1A9
:102A30006D4F00944FF00109009809FA01F202402D
:102A400069D04FF0030A01FA09FCDD684FF00F0B63
:102A50000AFA0CFC01EA0A0021F00306634C25EA9D
:102A60000C05800006F1B046A342DD600BFA00F5CC
:102A7000D3F800B006F580662BEA0C0CC3F800C052
:102A8000DEF8F4C04CF0020CCEF8F4C0DEF8F4C06E
:102A90000CF0020CCDF80CC0DDF80CC0D6F808C064
:102AA0002CEA050526D004F58064A34240D0504CA2
:102AB000A3426DD04F4CA34276D04F4CA3426DD071
:102AC0004E4CA34274D0DFF84CC163457CD0DFF894
:102AD00048C163457ED0DFF844C163456ED0DFF85E
:102AE00040C163450CBF4FF0090C4FF00A0C0CFAC3
:102AF00000F00543B5604FF0B0403D6815433D60C0
:102B00007D6825EA02057D60056815430560456816
:102B100025EA020242600131009ACA408AD1019B33
:102B2000984498F8C43EF02B06D805B0BDE8F08F65
:102B300009FA00F00543DDE7F021314A314B01206D
:102B400088F8C41ED2680199C2F302222E4D595C46
:102B5000C2F10704131D01F01F06042C00FA06F051
:102B600028BF0424062B4FF0FF338CBF033A00220A
:102B7000A3406C184909DB4303F0030393401B0196
:102B8000DBB284F8003345F8210005B0BDE8F08FD2
:102B90004FF0020C0CFA00F00543ABE74FF0040CC9
:102BA0000CFA00F00543A5E70AFA00F00543A1E797
:102BB0004FF0050C0CFA00F005439BE74FF0080CB2
:102BC0000CFA00F0054395E74FF0060C0CFA00F004
:102BD00005438FE74FF0070C0CFA00F0054389E737
:102BE000704700BF78E809088000005800000258CC
:102BF00000080258000C0258001002580014025835
:102C000000ED00E064690A0800E100E0403B0024B8
:102C10000044025800180258001C025800200258B4
:102C2000002402582DE9F84FCB4C054694F8CB1EF2
:102C3000D4F8D00EC1F3400146F07CFA94F8CB1ED4
:102C4000D4F8CC0EC94301F0010146F073FA002D0F
:102C500000F0E78005F1FF39C04E4FF01008C04F7B
:102C60005FFA89F9BF4DD4F8D03E33B11A689B881A
:102C700051690B4218BF1B049361D4F8CC3E33B1A9
:102C80001A689B8851690B4218BF1B049361B4F802
:102C9000D83E002B40F0578194F8DA1ED4F8DC0EB1
:102CA00046F048FAFA204FF47A714FF0010C7B6835
:102CB000C3F30803002B40F01981EFF31183002BBD
:102CC00040F0148156F8F42CD5F808E056F8F43C9E
:102CD0009A42F7D1D4F8003F9E45F3D8D4F8FCAE21
:102CE00001FB0AF3A3EB0E03B3FBFAF301FB023281
:102CF0007B68C3F30803002B40F0B680EFF3118329
:102D0000002B40F0B18056F8F43CD5F808B056F8E6
:102D1000F4EC7345F7D1D4F800EFF345F3D8D4F8C9
:102D2000FCAE01FB0AFEAEEB0B0EBEFBFAFE01FB96
:102D300003E39B1AB3F57A7FDAD30138B7D1D4F81D
:102D4000D03E33B11A689B8851690B4218BF1B04EF
:102D50009361D4F8CC3E33B11A689B8851690B4219
:102D600018BF1B049361B4F8D83E002B40F0DF80FD
:102D700094F8DA1ED4F8DC0E81F0010146F0DAF99D
:102D8000FA204FF47A714FF0010C7B68C3F308030B
:102D9000002B40F08A80EFF31183002B40F08580F8
:102DA00056F8F42CD5F808E056F8F43C9A42F7D1DE
:102DB000D4F8003F9E45F3D8D4F8FCAE01FB0AF3EB
:102DC000A3EB0E03B3FBFAF301FB02327B68C3F300
:102DD000080343BBEFF311832BBB56F8F43CD5F843
:102DE00008B056F8F4EC7345F7D1D4F800EFF3458A
:102DF000F3D8D4F8FCAE01FB0AFEAEEB0B0EBEFB23
:102E0000FAFE01FB03E39B1AB3F57A7FDED30138A8
:102E1000BBD109F1FF395FFA89F9B9F1FF0F7FF4EE
:102E200022AFBDE8F88FEFF3118A88F31288D5F846
:102E300008B02B68DB0303D5C4F8F8CED5F808B08A
:102E400056F8F43C5FFA8AFAD4F8F8EE8AF311885F
:102E5000D4F8FCAE734401FB0AFEAEEB0B0EBEFBD6
:102E6000FAFE01FB03E3CEE7EFF3118A88F3128841
:102E7000D5F808B02B68DB0303D5C4F8F8CED5F835
:102E800008B056F8F43C5FFA8AFAD4F8F8EE8AF300
:102E90001188D4F8FCAE734401FB0AFEAEEB0B0EB6
:102EA000BEFBFAFE01FB03E343E7EFF3118E88F369
:102EB0001288D5F808A02B68DA0303D5C4F8F8CE39
:102EC000D5F808A056F8F43C5FFA8EFED4F8F82E38
:102ED0008EF31188D4F8FCEE1A4401FB0EF3A3EB39
:102EE0000A03B3FBFEF301FB02326FE7EFF3118E2F
:102EF00088F31288D5F808A02B68DA0303D5C4F844
:102F0000F8CED5F808A056F8F43C5FFA8EFED4F857
:102F1000F82E8EF31188D4F8FCEE1A4401FB0EF360
:102F2000A3EB0A03B3FBFEF301FB0232E0E6D4F8A5
:102F3000F43E002B3FF424AF0023D4F8E02E1360BE
:102F400084F8F13E1CE7D4F8F43E002B3FF4AAAE1F
:102F500041F0E8FCA6E600BF403B0024482A0024DC
:102F600000ED00E010E000E02DE9F04FCA4C83B026
:102F70000523CA4E94F8CB1E4FF01009D4F8D00E9A
:102F8000C1F34001019346F0D5F894F8CB1ED4F874
:102F9000CC0EC943DFF80C83C14D01F0010146F0AE
:102FA000C9F8D4F8D03E33B11A689B8851690B42F6
:102FB00018BF1B049361D4F8CC3E33B11A689B88C8
:102FC00051690B4218BF1B049361B4F8D83E002B23
:102FD00040F0598194F8DA1ED4F8DC0E46F0AAF8D5
:102FE00032204FF47A710127D8F80430C3F3080374
:102FF000002B40F01B81EFF31183002B40F0168172
:1030000056F8F42CD5F808E056F8F43C9A42F7D17B
:10301000D4F8003F9E45F3D8D4F8FCAE01FB0AF388
:10302000A3EB0E03B3FBFAF301FB0232D8F8043032
:10303000C3F30803002B40F0B780EFF31183002B9C
:1030400040F0B28056F8F43CD5F808B056F8F4ECED
:103050007345F7D1D4F800EFF345F3D8D4F8FCAEBC
:1030600001FB0AFEAEEB0B0EBEFBFAFE01FB03E317
:103070009B1AB3F57A7FD9D30138B5D1D4F8D03EB5
:1030800033B11A689B8851690B4218BF1B049361C6
:10309000D4F8CC3E33B11A689B8851690B4218BFF3
:1030A0001B049361B4F8D83E002B40F0E08094F804
:1030B000DA1ED4F8DC0E81F0010146F03BF8322034
:1030C0004FF47A710127D8F80430C3F30803002BBA
:1030D00040F08B80EFF31183002B40F0868056F890
:1030E000F42CD5F808E056F8F43C9A42F7D1D4F81D
:1030F000003F9E45F3D8D4F8FCAE01FB0AF3A3EBE6
:103100000E03B3FBFAF301FB0232D8F80430C3F329
:10311000080343BBEFF311832BBB56F8F43CD5F8FF
:1031200008B056F8F4EC7345F7D1D4F800EFF34546
:10313000F3D8D4F8FCAE01FB0AFEAEEB0B0EBEFBDF
:10314000FAFE01FB03E39B1AB3F57A7FDDD3013866
:10315000B9D1019B5F1E17F0FF0301937FF421AFEC
:1031600003B0BDE8F08FEFF3118A89F31288D5F828
:1031700008B02B68DB0303D5C4F8F87ED5F808B097
:1031800056F8F43C5FFA8AFAD4F8F8EE8AF311881C
:10319000D4F8FCAE734401FB0AFEAEEB0B0EBEFB93
:1031A000FAFE01FB03E3CEE7EFF3118A89F31288FD
:1031B000D5F808B02B68DB0303D5C4F8F87ED5F842
:1031C00008B056F8F43C5FFA8AFAD4F8F8EE8AF3BD
:1031D0001188D4F8FCAE734401FB0AFEAEEB0B0E73
:1031E000BEFBFAFE01FB03E342E7EFF3118E89F326
:1031F0001288D5F808A02B68DA0303D5C4F8F87E46
:10320000D5F808A056F8F43C5FFA8EFED4F8F82EF4
:103210008EF31188D4F8FCEE1A4401FB0EF3A3EBF5
:103220000A03B3FBFEF301FB02326EE7EFF3118EEC
:1032300089F31288D5F808A02B68DA0303D5C4F8FF
:10324000F87ED5F808A056F8F43C5FFA8EFED4F864
:10325000F82E8EF31188D4F8FCEE1A4401FB0EF31D
:10326000A3EB0A03B3FBFEF301FB0232DEE6D4F864
:10327000F43E002B3FF423AF0023D4F8E02E13607C
:1032800084F8F13E1BE7D4F8F43E002B3FF4A8AEDF
:1032900041F048FBA4E600BF403B0024482A00243C
:1032A00010E000E000ED00E010B4B8B10D4CD4F82F
:1032B000043F102B05D1052100205DF8044B3DF0A3
:1032C0009DBF03EB4302224482F8091F012182F8CB
:1032D000080F0B4482F80A1FC4F8043F5DF8044B42
:1032E000704700BF403B002403681878012801D0D4
:1032F00000207047074A642193F9043001FB03233F
:1033000093F8912F202AF4D1D3F8503F9869C0F355
:10331000C0307047403B002430B5044683B00123E1
:103320000D460DF107020848214646F061FE9DF862
:10333000072035EA020304D02A432146024847F019
:10334000DBF803B030BD00BF084C0024F0B5344CAE
:10335000134693B054F8305C2A78022A07D00A4604
:103360000146A4F1300046F043FE13B0F0BD2A6AD6
:1033700012B1002013B0F0BD0DF1070C002600279C
:103380008DF80700012003928DF814200B920E9205
:103390001092CDF808C004908DF828008DF83C00FC
:1033A000CDE90622CDE90813CDE90C67EFF31180D2
:1033B000102383F3128854F8303C1B6A13B302AE17
:1033C000049B32461BB1D3691432002BFBD12B6A0C
:1033D00013B3996839B993420AD0196829B15B6867
:1033E00099680029F7D01433F3E70E4AC3E90026A1
:1033F000C0B280F3118854F8302C136A002BFCD132
:103400000120B2E702ABC0B22B6280F31188A4F1B5
:10341000300056F0BFFCEEE7024A1A60FFDE00BF44
:10342000384C0024084C00242DE9F04F046883B088
:103430002578022D00F08880012D04D0002420463C
:1034400003B0BDE8F08F94F904704B4E032F86F85B
:103450009C50D4BF00240124B7F1FF3F08BF44F0C3
:103460000104002CEAD10A46DFF828C16421034692
:1034700001FB07C1D1F8500F0028DFD091F891EF80
:10348000BEF1200FDAD1806910F40048D6D191F84E
:10349000900F0128D2D04FF0400E38484FF021094C
:1034A00093F804A0DCF824BA81F8919F81F892EF98
:1034B00006F19C0EC1F8948FA1F87A5FC1F87C0FD9
:1034C000B1F87A3F2E489BB281F8905FC1F874EF53
:1034D000FF2BC1F8840F4AD8B1F87AEF4FF000798A
:1034E0001FFA8EFE64204FEA4A0ACDF800B0192375
:1034F00000FB07F7234851460CEB07053844A5F8B5
:1035000078EFFEF755FF40BBD5F8502F1E495368A2
:1035100095F8786F0B401D4CD5F8841F43EA0A03D9
:10352000A14243EA064343EA0903536085F8900F3A
:1035300004D0174B994218BF4FF0F20813680124CA
:1035400043EA080313607AE7236A002B7FF476AF1F
:103550000122144646F0E2FB71E7B6F89E300022E5
:10356000013385F8902F9BB2A6F89E3067E74FF0A5
:10357000FF0E4FF08079B5E7384C00240000FFFFC4
:1035800031C70408904A0024009C00FCC1C4040810
:10359000EDC50408403B00242DE9F04FB84C002352
:1035A00095B005464FF4F072202104F1A400019576
:1035B00084F8A0304FF0100884F8A1305BF026F8B2
:1035C0004FF4F07204F521702021AE4F5BF01EF82D
:1035D0004FF47A754FF0320CAB4ADFF8CCE24FF083
:1035E0000109AA48DEF80430C3F30803002B40F0B9
:1035F000BD80EFF31183002B40F0B88057F8F41C26
:10360000866857F8F43C9942F8D1D2F8003F9E42C0
:10361000F4D8D2F8FCAE05FB0AF39B1BB3FBFAF31C
:1036200005FB0131DEF80430C3F30803002B7CD125
:10363000EFF31183002B78D157F8F43CD0F808B0A1
:1036400057F8F46CB342F7D1D2F8006FB345F3D812
:10365000D2F8FCAE05FB0AF6A6EB0B06B6FBFAF6B3
:1036600005FB03635B1AB3F57A7FDBD3BCF1010C76
:10367000B8D194F86524002A52D094F86634013BFE
:10368000052B4DD803EB83060125814804EBC601C9
:1036900084F8E05500EBC60691F86854C4F8586504
:1036A000022D00F05482DBB204EB0313D3F8F035A3
:1036B000C1F86C34A3B34FF480750227431900F5A9
:1036C0009E7081F86874A1F87454C1F88034C1F810
:1036D0008404150902F00F02013D062D00F2188244
:1036E0006C4F07EB4503B3F8800040FA02F3DB07A9
:1036F00040F10E8201233D44674E03FA02F2013A83
:10370000104058F055FC95F89010014406EBC108A4
:1037100098F80630C4F86085412B47D0002B45D07F
:103720006FF0010015B0BDE8F08FEFF3118A88F358
:103730001288D0F808B00368DE0303D5C2F8F89EFB
:10374000D0F808B057F8F43C5FFA8AFAD2F8F86E6D
:103750008AF31188D2F8FCAE334405FB0AF6A6EBD7
:103760000B06B6FBFAF605FB03637BE7EFF3118666
:1037700088F31288D0F808A00368DB0303D5C2F8E9
:10378000F89ED0F808A057F8F43CF6B2D2F8F81E2C
:1037900086F31188D2F8FC6E194405FB06F3A3EBFF
:1037A0000A03B3FBF6F305FB01313BE723223B4B56
:1037B00004ADA8F8062056F8312013449B0A07EB05
:1037C0004307B7F898000127FCF7FAFF0023B8F881
:1037D00004C0032256F8310029460693CDE9072399
:1037E000CDE904C709F0A4FDD4F86035002B00F042
:1037F000BC811A68D4F858659B889361284A0223D3
:10380000284952085B008A429BB201D9FF2BF8D9A4
:10381000FF220DF10D01A4F85C3500238DF80D2079
:1038200001220D9306928DF81C208DF83020CDE9F1
:103830000413CDE90833CDE90A33EFF311801023E7
:1038400083F31288D4F858351B6A002B00F0658189
:10385000069B2A461BB1D3691432002BFBD1336A75
:10386000002B00F08B81996839B99A4221D01968F0
:10387000E1B15B6899680029F7D01433F3E700BF22
:10388000384C0024482A0024403B002410E000E08B
:10389000A050002478E80908E44100240000FEA7B5
:1038A00080F0FA02404B4C0000ED00E0B04AC3E962
:1038B0000025C0B280F31188D4F858C5DCF8203058
:1038C000002BFBD101224FF08C0E0DF10E060DF1F5
:1038D0000F070020002105938DF81C300D931093E5
:1038E00012938DF80EE0049606920B928DF830201C
:1038F0008DF844200A97CDE90833CDE90E01EFF3A6
:103900001180102383F31288D4F858351B6A002BDA
:1039100000F00B81069B2A461BB1D3691432002BA1
:10392000FBD1DCF82030002B00F02881996839B9F0
:103930009A420AD0196829B15B6899680029F7D0C2
:103940001433F3E78A4AC3E90025C3B283F311882D
:10395000D4F85825136A002BFCD19DF80F301B2B8F
:1039600040F0FB800122D4F8603584F8A0200BB130
:103970002322DA80DFF8F8A140220A21504646F0DF
:10398000CDF9002301224FF08A0C002000218DF890
:103990000EC00496D4F858C50A9705938DF81C30CC
:1039A0000D931093129306920B928DF830208DF8A0
:1039B0004420CDE90833CDE90E01EFF31180102347
:1039C00083F31288D4F858351B6A002B00F0B680B8
:1039D000069B2A461BB1D3691432002BFBD1DCF8BD
:1039E0002030002B00F0CD80996839B9934209D07E
:1039F000196829B15B6899680029F7D01433F3E797
:103A0000C3E900A5C3B283F31188D4F85825136A1B
:103A1000002BFCD1574A0223574952085B008A42C7
:103A20009BB201D9FF2BF8D90222002150484FF058
:103A3000800BA4F85C3546F071F9C8204FF00008FF
:103A40003DF024FD4FF00009D4F858050023012271
:103A50008DF80EB004960A9705938DF81C300D93DF
:103A60001093129306920B928DF830208DF844201B
:103A7000CDE90833CDE90E89EFF31182102383F3EA
:103A80001288D4F858351B6A002B37D0069B002BC0
:103A90003CD02B46D96914330029FBD1006A002899
:103AA00072D0816839B9834209D0016829B1406870
:103AB00081680029F7D01430F3E7C0E900A5D2B23D
:103AC00082F31188D4F85805036A002BFCD19DF8C5
:103AD0000F3013F00203B9D1019918464A788B7858
:103AE000C2F120020978C3F1100384F8512684F84A
:103AF000523684F8501615B0BDE8F08FD2B2056288
:103B000082F311881A4856F045F9DBE72B46C5E7E2
:103B1000002304ADC4F8603570E6C0B2356280F3AE
:103B20001188134856F036F9C6E6C3B2CCF82050D7
:103B300083F311880E4856F02DF909E7C3B2CCF88B
:103B4000205083F31188504656F024F95DE791F830
:103B50007534013381F87534BBE5D4F86005202154
:103B600045F012FA4FF0FF30DCE5D4F8586545E631
:103B70009051002480F0FA0280969800044A1A605E
:103B8000FFDEC3F800A0FFDEC0F800A0FFDE00BF2C
:103B900090510024F0B5154D83B00E4615F8F03C59
:103BA000022B0DD1070AC4B2D5F84401002301222B
:103BB00001A9384406F096F9012806D003B0F0BDFB
:103BC000C0F3D41700F07F04EEE715F8F03C022BA9
:103BD000019B04D133F81430336003B0F0BD53F8C7
:103BE000243023F07043336003B0F0BD482A002432
:103BF0002DE9F04F884C16460B2287B094F8CE88FA
:103C0000054694F8D9A889464046114602951D46B6
:103C10009DF840703DF0A6F8C245834640F0B08064
:103C20000390404644F032F917F00803024601932E
:103C300000F09980BBF1000F00F091809BF8071015
:103C4000890700F18C80C4F898B6C4F89406C4F8CB
:103C50009006002800F0DC8040F60B3105F0020AE7
:103C6000C1804FF48073DFF8C8810299584608EB91
:103C7000030284F858560025C4F88016C4F86C2650
:103C80003146664AC4F86036C4F85426C4F864362F
:103C9000C4F85C6684F85976C4F88496C4F86886DB
:103CA000C4F87456C4F87056C4F87C56C4F87856F4
:103CB000C4F8B05884F8B458A4F8A85833F046FAB9
:103CC000D4F8980607F00101FCF732FD544A554B31
:103CD000D4F89806C4F8BC58C4F8C028C4F8B8385A
:103CE000BAF1000F1CD0D4F8A076CFB13A680368BF
:103CF0009A4215D001233146384684F8B53833F05E
:103D000025FA08F505722946D4F8A00657F076F88A
:103D10002A4608F50771D4F8980657F06FF807E0BF
:103D2000414A002302F1080184F8B53857F066F8DB
:103D3000D4F89836186857F043FA019BC4F89C06EB
:103D40002BB33A4833F02AFA384807B0BDE8F08F71
:103D5000039BCDE9040113B1D87983071FD5002057
:103D600007B0BDE8F08F15F00101F1D105F0020CAC
:103D70005FFA8CFABAF1000F2CD1D4F898B670E73C
:103D80000B220C2150463CF0EDFF039049E72748F9
:103D900033F0F8F90121254833F026FAD1E75046EF
:103DA00005F0020A44F072F8039AD4460599C4F863
:103DB0009826049AC4F89006904202D1BAF1000FF6
:103DC0001CD10028D4D040F60C3EA0F806E0BAF191
:103DD000000FD2D0B8F1000FC1D0C4F8942691B929
:103DE000BBF1000FBBD0C4F898B65FFA8CFA002A7A
:103DF0003FF437AF40F60B31D18032E7B8F1000F16
:103E0000ADD0C4F89426C4F8A0B6D4F898B6ECE7C0
:103E100005F0020A25E700BF384C0024A0ED090890
:103E20000159070801720708F05400248C5200243D
:103E3000DC52002430B5034683B0084C00250DF158
:103E40000600C4F8DC3FADF80650DB6A984703462D
:103E50002846C4F8E43F03B030BD00BF5019002429
:103E6000036870B55E6A26B133460522BDE870402E
:103E7000184704460D464E1D00E023689B68204607
:103E800098470028F9D02368204615F8011B1B68C5
:103E90009847B542F1D170BD0A44914219D0013919
:103EA00010B4541E11F8012F0823504002E0013BCA
:103EB000D0B209D010F0800F4FEA4002F7D082F064
:103EC000D500013BC0B2F5D1A142EBD15DF8044B66
:103ED000704770472DE9F0470023194D84B007461D
:103EE00095F9ED9805F6F4064FF0B60A00EB0108D7
:103EF00005F694351C46D6F800C0304600226946C7
:103F0000E036BCF1000F14D09CF838C0BCF1140F9F
:103F10000FD019F1020F01D0CC450AD1CDE90244EE
:103F2000CDE90078ADF808A08DF80D4033F078FFAA
:103F30000346B542DFD1184604B0BDE8F08700BFA4
:103F4000384C0024094B93F81636042B08D9053B4E
:103F5000032B08D801231A4600B10370104670479E
:103F600000230122F8E700231A46F5E7403B00242E
:103F70002DE9F0479AB004460D4617469846DDF8FD
:103F80009090DDE9226A02E0206840F0FBFE2068A4
:103F900040F000FF0028F7D10146642201A85AF042
:103FA00035FB264B8DF80450CDF85CA00293002D14
:103FB00040D0AB1E012B3FD9042D14BF0023032397
:103FC0001F4A8DF80530012352F8F42C039616444D
:103FD0008DF85B30CDE90594049637B142463946F9
:103FE00007A85AF0A1FA8DF85A80164E002396F8C9
:103FF000D69B1893B9F1000F19D196F8D50B64220E
:1040000001A902FB006000F6D8305AF08DFA0123B6
:1040100086F8D59B86F8D63B236843B143463A469B
:10402000294620461AB0BDE8F0471AF031BE1AB052
:10403000BDE8F0870523C3E70223C1E7CC5700247E
:10404000482A0024384C00242DE9F043E04FDFF8E3
:10405000E0E3D7ED3E7A07F26C639EF8404CB8EE91
:10406000670A2DED048B83ED000A002C6FD1DFF879
:10407000C4C397F87866C7F874469CF80040002ED1
:1040800039D0BEF8463C00229FEDD26A012E07EEE1
:10409000903A9FEDD17AD14BF8EE677A20EE077A0D
:1040A0001A60C6EE276A76EE876AC7EE267AC3EDF7
:1040B000017A20D0022E9A60C3ED037A1BD0032E22
:1040C0001A61C3ED057A16D0042E9A61C3ED077A02
:1040D00011D0052E1A62C3ED097A0CD0062E9A6211
:1040E000C3ED0B7A07D0072E1A63C3ED0D7A02D009
:1040F0009A63C3ED0F7ABA4A9CF8583B92F8362679
:104100001C44DFEDB87A06EE902ADFEDB75A14FBB7
:1041100006F620EE270AF8EEE66A9FEDB47AF6B2CC
:10412000B34A85EEA66A07EE906AF8EEE77ABDEC30
:10413000048BA7EE807AF7EE477AFCEEE77A82ED01
:10414000006A17EE903A87F8C837BDE8F083FCEEB6
:10415000C06A9FEDA87ABEF8421C01229EF8413C3D
:10416000F8EE661A06EE101ABEF8441C07EE903AF6
:10417000DFF8C0C216EE903AC7EE215A07EE101AC9
:104180009FED9D5ADFED9D6A97F87866CCF8143064
:10419000F8EE677AC7F874C6B8EEC77A8CF80040B4
:1041A000B8EE466A87F87026CCED017A67EE857A1C
:1041B00067EE266A8CED036A67EEA11ACCED046AFD
:1041C000CCED025A002E96D0DFED8D7AC6EB0615A7
:1041D000A6EB06194FF0000887EE871A0CEBC50511
:1041E0004FEAC909DFED873ADFED875AF1EE410A60
:1041F00009EB05009FED856A03460022DFED842A66
:104200009FED843ADFED846A07EE902AB8EEE77AF4
:1042100027EE217AFDEEC77A17EE901A2031402959
:1042200000F2CF80B4EEE37AF0EE477AF1EE10FAC6
:104230000CDDDFED7A4A9FED7A5AB0EE674A77EEF1
:10424000E47AB4EEC54AF1EE10FAF6DCF4EEE57A63
:10425000F1EE10FA0CD5DFED714A9FED725AB0EE17
:10426000674A77EEA47AB4EEC54AF1EE10FAF6D4B6
:10427000F4EEC67AF1EE10FA40F3998073EEE77A25
:1042800027EEA74ADFED684AB0EE438AB7EE005A40
:1042900024EE272AA4EE228AF0EE458AE4EE084AAC
:1042A000E2EE247AF0EE454AE1EE278AE0EEA74AF4
:1042B00085EE289A84EEA88A77EE067ABDEEE75A54
:1042C00015EE101A203140296ED8B4EEC67AF1EE00
:1042D00010FA0CDD9FED515A9FED517AF0EE674ACE
:1042E00077EEC57AF4EEC74AF1EE10FAF6DCF4EE9A
:1042F000E57AF1EE10FA0CD59FED485A9FED497A18
:10430000F0EE674A77EE857AF4EEC74AF1EE10FADE
:10431000F6D4F4EEC67AF1EE10FA3BDD73EEE77AEE
:1043200027EEA75A9FED407AB0EE432AF8EE004AF6
:1043300025EE274AA5EE222AA5EE027AE4EE077AB8
:1043400067EEA47A87EEA87A013283ED069A2833C5
:10435000A24203ED029A83ED008AC3ED056AC3ED24
:10436000026AC3ED016AC3ED046AC3ED036A03ED9B
:10437000037A03ED017AFFF647AF783085427FF488
:104380003BAF08F5707805F57075B8F5346F7FF4BC
:104390002FAF76E69FED257AF4EEC77AF1EE10FAAC
:1043A00048BF75EEE77ABBE7F0EE667ACAE79FEDA5
:1043B0001F5AF4EEC57AF1EE10FA48BF75EEE77AAF
:1043C0005EE7B7EE008AB0EE489AF0EE488A73E7EF
:1043D0000800002083F9223EBD378635805800242E
:1043E000403B00246E12833A5555554048E1FA3E51
:1043F000CC0700200060EA4827D4D2360AD7233CF5
:1044000000004842DB0F4940DB0F49C0DB0FC93FCA
:1044100092E741B99730083C00000000DB0FC9402B
:10442000E4CB1641E4CB16C115A82ABEDB0FC9BFE9
:10443000384C002488180020014488420ED00346DE
:10444000074810B4074C13F8012B04FB00F0994205
:1044500080EA0200F7D15DF8044B704700487047CE
:10446000C59D1C8193010001F0B42E4B02282E4DF6
:104470001F69D5F8246A42D02C4B04241F40294AD6
:104480004CF25031042C11D0D2F8103124EA03033D
:1044900013F0040F0CBF0123002363B1D5F8243AB5
:1044A0009B1B8B42EED90320F0BC70471369C3F30A
:1044B0008003002BF2D137F000420DD10128194AB8
:1044C00027D0D2F81011C90316D54FF48031184601
:1044D000F0BCC2F8141170471549002F4FF00100CD
:1044E000D1F8A03C43EA0703C1F8A03C0D4B0EDA1B
:1044F000C3F81421F0BC70471846F0BC7047D3F8DD
:1045000010710A4B0B4C1F4047F00047B7E75F6143
:10451000CAE71169C803EFD54FF4803118465161DD
:10452000C2E700BF00200052403B00240000EE170D
:10453000384C002404000080F8B52E4E96F89C2CD0
:10454000012A4DD000F17843012705460C46B3F50A
:10455000801F86F89C7C33D3A0F10163B3F5801FE4
:104560003CD200230220C6F8A03CFFF77DFF18BB19
:10457000214A0227D2F80C313B43C2F80C312146C4
:10458000BFF36F8FBFF34F8F2B1B04F120000A681E
:10459000CA5004318142FAD1BFF36F8FBFF34F8FFE
:1045A0003846FFF761FF012F134A1BD0D2F80C31B8
:1045B00023F00203C2F80C31002386F89C3CF8BDBE
:1045C00000233846C6F8A03CFFF74EFF0028F3D181
:1045D000094AD36843F00203D360D0E73846F8BDF8
:1045E0000220F8BDD36823F00203D360002386F8CD
:1045F0009C3CE4E7384C0024002000520C480D4B52
:10460000D0F8BC1C10B48A1E0B4C2231C0F8AC3C54
:10461000B0F8DA3C1B01A4FB03C3DB08A3F5B063CD
:1046200022F8023F9142F3D15DF8044B704700BF7E
:10463000384C0024411E0608CDCCCCCC70B5084CBB
:10464000251D2E4614F8010B35F024FB28B1037804
:10465000B44205F8013BF5D170BDFF23F8E700BF78
:10466000385900242DE9F0471C4F01264FF03C0932
:104670004FF0000807F10805B24617F8010B43F0A8
:1046800005FC044690B180F80690C671FB7803F0F3
:104690007F02012A17D013F0800F20460CD185F835
:1046A000048044F03BFD85F805802C600136083518
:1046B000052EE2D1BDE8F08785F804A044F034FD72
:1046C00085F805A0F1E71B0605D40121204644F03A
:1046D0005BFCFB78DFE744F027FDF6E74059002458
:1046E000684B2DE9F04F4FF0010885B003F10C0B3A
:1046F000DFF8ACA10293029B13F8016B0293002E2A
:1047000000F0B380340906F00F02013C062C00F2E1
:10471000AF800AEB4403B3F8800040FA02F515F0CD
:10472000010500F0A98001235444574D9340013BFB
:10473000184057F03DFC94F890300422184405EBE3
:10474000C005CBF8145085F80780AA71002302E059
:10475000152B00F08A8003EB43024C494FEA4309D2
:104760000133895CB142F3D1494B1A4492F83916AE
:10477000002900F0848030463CF078FA074638463D
:104780003CF0B2FA0478002C6FD1414B04224B4428
:1047900083F8798683F87826002F66D0002D47D0DD
:1047A0002B683C4A397A1A440391920A0AEB420276
:1047B000B2F89800FCF704F8B5F804C02B68BCF117
:1047C000000F35D004F0070201250F26610092008A
:1047D00005FA04FEE008032506FA02F9039E1CEA26
:1047E0000E0F05FA01F506FA02F24FF0020603EB8E
:1047F000800004F1010406FA01F116D09E6826EA51
:1048000005069E605E6826EA0E065E60DE6826EAA1
:104810000506DE60066A26EA090942EA0902026222
:104820001A6822EA0505294319603CFA04F2C9D145
:10483000194C08F10108194A0025B4F8323D5FFA15
:1048400088F8B4F8304D584639460BF1180BB2FBD6
:10485000F3F3CDE900459BB232F0A2FE0123B8F19B
:10486000090F0BF8073C7FF446AF05B0BDE8F08FA9
:104870000025CBF8145069E7CBF8145066E70F46D3
:104880007DE700BF6C590024E441002478410024F6
:10489000403B00240000FEA7384C002440420F009B
:1048A00078E8090807EE900ADFEDED6AED4B00228B
:1048B0009FEDED7AB3F8001E2DE9F04F2DED068B3C
:1048C000B8EE679A0AEE101AB3F8041E83B0B8EE79
:1048D0004AAAE64EC6EE897A08EE901ADFEDE46A3F
:1048E000B3F8021E93F8065E06F2CC7308EE101AB7
:1048F000C6F81C08F8EEE88A83ED01AA3AEE0A6AC7
:10490000C6F8D857B8EEC88AC6F8DC2728EE877AEA
:1049100088FE068A83ED028A83ED007AF4EEE67A59
:10492000F1EE10FA00F1F28207EE105AF7EE006A8B
:10493000B8EEC77AC6EE879ADFEDCE5ACE4BDFEDE2
:10494000CF3A194603F12C04B6EE006AD3ED05AA5E
:10495000B7EE005A143169EE255ADFEDC94A67EE09
:10496000866A0191B0EE004ADFF848A3C3ED045A0D
:1049700086EE887A9AF8982087FE057ABDEEC77A87
:10498000F8EEC75A17EE108A17EE101AB8F1010F99
:10499000C7EEA56AC6F8781AB8BF4FF00108C5EE91
:1049A000257A66EEA36A8AEE267AE3EC017AC3EDF5
:1049B000006AC8EE267A37EE067A87FE047ABDEEE4
:1049C000C77A77EE867A17EE101AC7FEE47AFDEE04
:1049D000E77A01F1FF3BC6F8841A17EE901ABBF193
:1049E000230F01F10100A8BF4FF0230BC6F8881A6E
:1049F00023282BEAEB7B0746A8BF23278345C8BFA4
:104A00005F46A7EB0B0696FBF8F60136002A40F04E
:104A1000E2800AF19C01DFED9B0ADFED9B5A9FEDDE
:104A20009B2A9FED9B5ADFEDA72A9FEDA73ADFED6A
:104A3000A73A9FED984ADFEDA61A07EE902AB8EE46
:104A4000E76A66EE207A37EEA57AFDEEC76A16EEC3
:104A5000903A2033402B00F21382F3EE026AB4EE58
:104A6000E66AF1EE10FA0CDDDFED944ADFED926AB2
:104A7000B0EE471A37EE647AB4EEE61AF1EE10FAA9
:104A8000F6DCB4EEC57AF1EE10FA0CD5DFED8B4A08
:104A9000DFED8B6AB0EE471A37EE247AB4EEE61AF1
:104AA000F1EE10FAF6D4B4EEE57AF1EE10FA40F336
:104AB000FC81DFED796A36EEC77A67EE076AB0EE01
:104AC000431AB0EE630A67EE264AA6EEA21AA1EEDA
:104AD000260AFDEEE76A16EE903AA4EE807A2033BD
:104AE000402B27EE047A00F2D581DFED6C6AB4EE3C
:104AF000E66AF1EE10FA40F3FE81F0EE676A9FED90
:104B00006F0A9FED6D1AF0EE664A76EEC06AF4EE1B
:104B1000C14AF1EE10FAF6DC9FED5F1AF4EEC14ADD
:104B2000F1EE10FA13D59FED651ADFED654AB0EE90
:104B3000660A76EE816AB4EEE40AF1EE10FAF6D473
:104B4000DFED566AB4EEE66AF1EE10FA0CDD9FED89
:104B50005B6ADFED596AF0EE674A77EEC67AF4EEEB
:104B6000E64AF1EE10FAF6DCF4EEC57AF1EE10FA50
:104B70000CD59FED526ADFED526AF0EE674A77EE90
:104B8000867AF4EEE64AF1EE10FAF6D4F4EEE57A1F
:104B9000F1EE10FA40F38181DFED3F6A76EEE77ABD
:104BA00067EEA76AF0EE434AB0EE631A27EEA66AF4
:104BB000E6EEA24AA4EEA61AE6EE017A67EE847A41
:104BC000013281ED007AC1ED017A0831242A7FF4A7
:104BD00034AFDFED33AA4FF000094FF4907200219B
:104BE000204644F80C7C44E9059B44E9026859F0EE
:104BF0000DFD04F590704FF49072002159F006FD00
:104C000004F51574274BA342E7D10123DFED267A83
:104C1000019A29EE279A8AF89830C2ED00AA002D51
:104C200000F02981DFED217A38EE4A8A204E87EEA6
:104C3000A82ADFED191AA6F1140406F51177DFEDA5
:104C4000142A69EE889AB1EE421AB7EE005A23464A
:104C500030460022DFED0C5ADFED0C6A3EE000BF6B
:104C600000247449384C00240AD7233C0800002053
:104C70000000FA449C534937840A0020398E633C73
:104C800000000C42C3B8B23DDB0FC93F000000007A
:104C9000DB0F49C072F97F3FDB0F49400000104233
:104CA000BC297E3FAC11002027D4D23600004842F8
:104CB000E807002000110020E4CB1641DB0FC940BB
:104CC000E4CB16C192E741B99730083C15A82ABE3B
:104CD000DB0FC9BF000010C20000807F07EE902AE2
:104CE000B6EE007AF8EEE77A77EE877AB0EE4A7A97
:104CF000A7EEA97AF0EE477A29EE077AE0EC017A7E
:104D0000FDEEC77A17EE901A2031402900F2D580C7
:104D1000B4EEE17AF0EE477AF1EE10FA0CDD1FED19
:104D2000194A5FED1B4AB0EE676A77EEC47AB4EEBB
:104D3000E46AF1EE10FAF6DCF4EEE27AF1EE10FA43
:104D40000CD51FED224A5FED224AB0EE676A77EE7E
:104D5000847AB4EEE46AF1EE10FAF6D4F4EEE57A71
:104D6000F1EE10FA40F3B38071EEE77A67EEA74AEE
:104D70005FED2C3A1FED2C4A1FED2C6AA4EEA34ADE
:104D800067EEA43AA4EE246AF0EE454AE3EE867A92
:104D9000B0EE456AE1EE274AA2EE276A84EE864A23
:104DA000C5EE064A77EE257AFDEEE73A13EE901A45
:104DB0002031402900F28880B4EEE57AF1EE10FA55
:104DC0000CDD1FED423A5FED443AB0EE677A77EEC4
:104DD000C37AB4EEE37AF1EE10FAF6DCF4EEE27A9E
:104DE000F1EE10FA0CD51FED4B3A5FED4B3AB0EEF9
:104DF000677A77EE837AB4EEE37AF1EE10FAF6D4BE
:104E0000F4EEE57AF1EE10FA6BDD71EEE77A27EE5B
:104E1000A73A1FED540A5FED543AF8EE000A1FED71
:104E2000557AE3EE003A23EE270AA3EE237AE0EE6A
:104E3000077A67EEA07A87EE867A0132C3ED154ACB
:104E40002833AA42C3ED0D4A83ED0F4A83ED145A6D
:104E5000C3ED116AC3ED106AC3ED136AC3ED126AA4
:104E600083ED0C7A83ED0E7A7FF438AFC8341436B4
:104E7000A7427FF4EAAE03B0BDEC068BBDE8F08F2D
:104E8000FDEEE76AB0EE427A16EE903A2033402B00
:104E90007FF62BAEF0EE427A92E6F4EEE17AF1EE96
:104EA00010FA48BF75EE677A7AE6B4EEE17AF1EE71
:104EB00010FA48BF35EE477AFFE5B7EE004AF0EE4C
:104EC000444AB0EE446A6DE7F0EE667AB3E71FED50
:104ED000806AF4EEC67AF1EE10FA48BF72EEE77A15
:104EE00044E71FED857AF4EEC77AF1EE10FA48BF79
:104EF00072EEE77A8BE75FED896AB4EEE66AF1EE6F
:104F000010FA7FF531AEF0EE676A0CE615465FEDFC
:104F10008E9AC6F8D8270FE52DE9F041214D0023E0
:104F2000214E4FF0050895F80B2E05F6086506F69C
:104F3000CC6486F8CB2E15F8010B5F1C20BB2060DB
:104F4000032F04F104043B46F5D196F8CB1ED6F8A6
:104F5000CC0EC94301F0010144F0ECF896F8CB1EE9
:104F6000D6F8D00E81F00201C1F3400144F0E2F81E
:104F700096F8CB1ED6F8D40E81F00401BDE8F041BE
:104F8000C1F3800144F0D6B842F080FF0121FBB2AA
:104F9000206010B180F80680C371206843F0F4FFF0
:104FA000CEE700BF384C0024403B00242DE9F041FF
:104FB0002A4C82B02A4DB4F8106EA5F8D86EEEB91E
:104FC00094F80C0E42F062FF94F80D2EC5F8DC0E3A
:104FD000003A18BF012285F8DA2E48B194F80E1E67
:104FE0002B220029C28014BF1121012143F0CCFFE4
:104FF000002002B0BDE8F0413FF0A6BC94F80C8E52
:1050000000222B2140463BF0ADFE0746404642F0D1
:105010003DFF00B117B902B0BDE8F0812B22C5F801
:10502000F40E4FF00008C280397AFBF789FE0D4A72
:10503000CDF804803946A4F8126E05F56E60B2FB17
:10504000F6F3C3F34F049BB2009432F0A9FAD5F8FB
:10505000E03EC3F8008085F8F18EDCE7384C002490
:10506000403B002440420F002DE9F84F254B00261D
:1050700093F8202E03F6176703F6346483F8142E92
:105080005FFA86FB4FF0010917F8010F01360BEBB1
:10509000090A49464FF000085FFA8AFA52463BF087
:1050A00061FE054640B3387804F80E8C04F80D8C88
:1050B00004F80FBC04F8109C44F8045C42F0E6FECF
:1050C00018B180F8069080F807A0297AFBF738FE1F
:1050D0000D4A0021284656F001F80C4B221D2146AE
:1050E000236028460A4BC4E9013855F087FE424642
:1050F0006979286832F05CF9082E04F11C04BFD1EC
:10510000BDE8F88F384C002440420F00497507086D
:105110008D47070870B52C4C00222C4B022194F8C7
:105120004C0FC4F8443FC4F8042FC4F8082FC4F847
:105130000C2FC4F8402FA4F8482F3BF013FE002892
:1051400040D0234B0546066803F1C0015A7C12B1DA
:105150005A6896422BD018338B42F7D1002394F82B
:105160004C0FC4F8305E84F8243E42F08FFE08B144
:105170000223C380297A0026FBF7E2FD2846154A60
:10518000002155F0ABFF144A1448154B111FC4F809
:10519000340E2846C4F8383EC4F83C6E55F02EFE56
:1051A000324669792868BDE8704032F001B930466E
:1051B00052F092FEB36A0B4A0133B0FBF3F082F86F
:1051C0001803CBE770BD00BF384C002400FFFF0080
:1051D0003C00002040420F00705A0024B5470708E9
:1051E00051490708000000242DE9F04F0D4685B015
:1051F000C04F0446C0220021BF48029559F006FA6C
:1052000097F84D3F93B9BD4DD5F82432002B00F0EF
:10521000908000220121029883F82D1083F82C0041
:105220001A6383F82E2005B0BDE8F08F97F84E3F43
:10523000002B00F08D80DFF8D88298F82436012BFF
:1052400000F09980022B00F09180AC4D98F81AC6BE
:1052500005F5F873AA4E98F816761C460393BCF130
:105260000003DFF8D0E218BF0123072F85F82832AA
:105270000FCE0FC40FCE0FC496E80700C5F808E2A2
:1052800084E8070000F20A81042F0FD998F8193634
:105290009C4A012BC5F8302206D09A1E5342534136
:1052A000BCF1000F18BF002385F83432DFF848A2A4
:1052B0000026DFF864B2029B0321B34237DD1BF8FE
:1052C000019B08EB090309F1010793F81B46FFB2A4
:1052D00020463A463BF046FD034620461C46002B3E
:1052E00000F0E58042F0D2FDCAF81400F1B218B126
:1052F0004FF00303C771837198F8172698F8163694
:10530000002A00F0D280E27982F001020092204669
:105310004A46013653F0E0FA002800F0C8804FF00A
:105320000103082E0AF1180A0AF8073CC3D1039BAF
:1053300084E0754E754C0FCE0FC40FCE0FC496E8A7
:105340000700A4F1200384E80700C5F824326AE7C7
:105350006F4B2046694D93F818260299003A18BF02
:105360000122FBF7ADFAC5F824024DE798F816368E
:10537000082B00F0A4804FF0000C98F81A365F4D0F
:10538000B3EB0C03029A634E05F5DE7418BF0123DC
:10539000C5F82C2298F8162605F50E7A85F82832DD
:1053A00087F8882FDFF8509187F850CF0FCE0FC4C1
:1053B0000FCE0FC496E8070084E80700564C6146FC
:1053C0004FF460725548664659F020F9D5F82C32F2
:1053D000B3425EDD14F8013B434493F81BB65846D4
:1053E0003BF046FD034658469B4642F04FFD98F879
:1053F00017369BF807B00BB18BF0010B0BF00101D6
:1054000095F82832013187F84F1F0BB18BF0010B53
:10541000002800F0918083799BB1A3F1410CDCF16D
:10542000000343EB0C0363B93D4C01213D483E4A68
:1054300087F8501FC5F8E021C5E97504C5F8243286
:10544000E2E6838849010136CAF80C00B3FA83F317
:1054500041F001018AF810B0C3F11F03CAF814101B
:10546000CAF804304FF00303C6718371039043F010
:105470008BFD1BF0010F03980DD043F04FFEDAF8BF
:105480000C30082E0AF1200A09F1180949F8043CE9
:105490009CD1264BD2E743F047FEF0E7082F7FF47C
:1054A00005AF234BC5F8303200E7E2792EE71C49FF
:1054B00000231D4AC5F80C12C5F81422BEE70F4D93
:1054C0000F4E05F5F87398F81A76DFF868C01C4699
:1054D0000393003F0FCE0FC40FCE18BF01270FC498
:1054E00096E8070085F82872C5F808C284E8070026
:1054F000D7E700BF384C00243C00002000110020FA
:1055000028EE090801860808D0ED09088C5B002404
:10551000403B0024FCED090866410024A03A012428
:10552000E1F80708E5F80708D9F80708BC120020D9
:10553000CD8508084D2A090849014FF0FF3301368F
:10554000CAF80C0041F00101CAF804308AF810B022
:10555000CAF814108AE700BFF8B5704F97F8D40C5A
:1055600042F094FC97F8D55C60B12D2304462021CD
:10557000C38043F009FD0A203BF088FF204643F03A
:10558000E1FD18B9D7F88C3FDA0100D5F8BD013D2F
:10559000092DFBD897F8D34CD4B9402036F09CFAAB
:1055A0000028F3D090F9043097F8A51C092BC8BF48
:1055B000143B0A293B4493F8C44800F0A18093F8B7
:1055C000CF3897F8D22C002A08BF1C46002CDDD01B
:1055D000204642F05BFC0546002800F089802D2320
:1055E0000121C38043F0D0FC012108463BF054FA6E
:1055F0002B68AA889A613C203FF0CEF80021012058
:105600003BF04AFA97F8D53CBBB30026444C94F8DB
:10561000CB1ED4F8CC0EC94301F0010143F08AFD42
:1056200094F8CB1ED4F8D40E81F00401C1F38001AC
:1056300043F080FD7820BDB3AB8801362A681B0497
:1056400093613BF023FF94F8CB1ED4F8CC0E01F00D
:10565000010143F06FFD94F8CB1ED4F8D40EC1F3D2
:10566000800143F067FD2B68AA8878209A613BF09F
:105670000DFF97F8D53C9E42C9DB97F8D33C7BBB26
:10568000D7F8D43C03F0FF13B3F5803F7FF47EAF2F
:10569000D7F88C3F13F080737FF478AF87F8D53C50
:1056A000BDE8F8404EF0BABA782001363BF0EEFE85
:1056B00094F8CB1ED4F8CC0E01F0010143F03AFD72
:1056C00094F8CB1ED4F8D40EC1F3800143F032FD20
:1056D00078203BF0DBFE97F8D53C9E4297DBCCE789
:1056E00032203FF059F82846002143F04DFCC7E72F
:1056F000012143F049FC012108463BF0CDF97AE74E
:10570000D7F8903F5B057FF541AF10F021FE0028F0
:105710007FF43CAF002C7FF45BAF37E7384C0024BC
:10572000403B0024F0B500230E680DE0BCF1050FEE
:1057300017D9BEF1050F18D80A2C16D103EB830335
:1057400016F8010B04EB4303A0F13005A0F1610C46
:10575000A0F1410EA0F13704EFB2092FE6D82C4694
:10576000ECE7A0F157040A2CE8D00E601360F0BDFE
:10577000094BD3F8940FD3F8982FD3F89C3F90425D
:1057800002DC114602460846984204DD9A42B8BF40
:105790001A46104670477047384C00240B6810B406
:1057A00014681B1B036054684B681B1B5DF8044B9B
:1057B00043608B6892689B1A836070472DE9F047BD
:1057C000041E0D4612DB092C26DC0B46814A82485A
:1057D0000021A0FB04605970C00800EB8000A4EB1E
:1057E0004000125C28461A70BDE8F08764422D2301
:1057F000092C01F8013B24D8764A774B0020A3FB03
:10580000046348702846DB0803EB8303A4EB4303DF
:10581000D35C0B70BDE8F0876F4B632CA3FB0426B1
:105820004FEAD60621DC0B466A4A6B49A1FB06010A
:10583000C90801EB8101A6EB4101515C03F8011B92
