:020000040800F2
:10000000F0FF0120CDF1050889DF0008318A0408DE
:1000100045F2050845F2050845F205080000000014
:1000200000000000000000000000000085DF000864
:1000300081DF0008000000007DDF0008114D04088A
:1000400045F2050845F2050845F2050845F20508A0
:1000500045F2050845F2050821A00408E99F0408B7
:10006000B19F0408799F0408419F0408ADB80508B2
:100070009DB805088DB805087DB8050869B805085C
:1000800055B8050841B8050845F20508000000000C
:10009000000000000000000000000000099F0408AC
:1000A00071330408C133040861330408E9330408D8
:1000B000B1330408A13304089133040845F205085C
:1000C00045F2050845F2050845F2050845F2050820
:1000D00045F20508314E0408754D04080000000083
:1000E000D19E040845F20508410C010800000000FB
:1000F0000000000000000000000000002DB805080E
:100100000000000045F205088133040845F20508A7
:1001100000000000000000000000000000000000DF
:1001200019B8050805B80508F1B70508DDB70508D1
:10013000C9B7050800000000000000000000000032
:1001400000000000000000000000000025FF000883
:10015000B5B70508A1B705088DB7050845F205082C
:1001600045F2050845F20508000000000000000007
:10017000000000000000000000000000000000007F
:100180000000000045F2050800000000000000002B
:0801900045F2050845F20508DF
:080198006CED05000100000000
:1001A0001302010004000000AC2B00209C6B002017
:1001B00000000000B01F0708986B00200311010029
:1001C0000A000000E82F0020A46B002000000000BF
:1001D00011110108A06B00200D1001002800000083
:1001E000585C0020B46B0020000000002FC2030800
:1001F000B06B00200902010001000000986A002095
:10020000E06B002000000000B41F0708DC6B00203A
:10021000FD0101001E000000E05B0020E86B0020F3
:10022000000000006F1E0408E46B0020FB010100C9
:1002300001000000F05600200C6C002000000000BF
:10024000B13D0508086C0020FC0101000900000018
:10025000BC550020146C002000000000C13D0508C2
:10026000106C0020F701010006000000B0550020CE
:10027000246C002000000000B61F0708206C00203E
:10028000F901010004000000AC550020306C002092
:1002900000000000011F04082C6C0020160215004D
:1002A0003F000000EC2D0020386C00200000000012
:1002B000613E0508346C002034000100100000008D
:1002C000DC5400207C6C002000000000753D02081A
:1002D000786C00201102010008000000B4540020D6
:1002E000906C002000000000BC1F07088C6C0020F0
:1002F0001212010004000000AC5400209C6C00208D
:1003000000000000C41F0708986C0020183001008E
:100310003800000074540020A46C0020000000008D
:10032000D13E0508A06C0020000201000B00000077
:10033000F8500020E06C0020000000004135050866
:10034000DC6C0020FA01010003000000F4490020E9
:10035000F06C00200000000071350508EC6C0020F6
:100360002A02010008000000443E0020F86C002032
:1003700000000000C81F0708F46C00202052010094
:1003800008000000A03C0020046D002000000000D8
:10039000512D0208006D002006100100240000000D
:1003A000082D0020106D002000000000DD3D050834
:1003B0000C6D00200C0201000400000058350020E4
:1003C000386D002000000000FD340508346D002069
:1003D000FE0101001400000004620020406D0020B6
:1003E00000000000493505083C6D00202102010095
:1003F000F000000068AE002080AF00200000000088
:10040000A19901087CAF00203710010030000000E6
:10041000E0AB002074B0002000000000D01F0708EF
:1004200070B000200E02010002000000649F002056
:10043000A8B000200000000000200708A4B00020A1
:1004400016100100060000005C9F0020B0B00020E4
:100450000000000002200708ACB000202F100100AF
:100460002200000058AF0020BCB0002000000000B7
:1004700008200708B8B00020232201001000000067
:10048000809E0020E4B00020000000002C2007081F
:10049000E0B000201E00010009000000689E00205E
:1004A000F8B00020000000003C200708F4B0002055
:1004B000052001000C0000003C9F002008B1002036
:1004C000000000004820070804B10020FD070100DB
:1004D0007C0000002E99002018B1002000000000D0
:1004E000F515010814B10020F59101006C00000021
:1004F000FC99002098B10020000000005D34010844
:1005000094B10020232001001000000042AB002025
:1005100008B2002000000000B10B020804B2002065
:100520001230010010000000509E00201CB200207C
:10053000000000005420070818B200200B30010012
:100540001A0000001499002060B200200000000092
:10055000642007085CB200201F5001002400000046
:10056000AC9A002080B20020000000008020070824
:100570007CB2002005020100040000006C9F0020F6
:10058000A8B2002000000000A4200708A4B20020A8
:10059000012001000C00000030BA002080C40020BF
:1005A00000000000A82007087CC400200C400600C2
:1005B000E400000054B8002090C4002000000000B7
:1005C000195003088CC400200A9001002400000088
:1005D00010B8002078C5002000000000690B020858
:1005E00074C500200E300300BC0100004CB6002092
:1005F000A0C5002000000000D99102089CC5002081
:10060000131001000400000010C4002060C7002087
:1006100000000000B42007085CC7002001010100B1
:100620000400000084B5002068C70020000000001E
:100630000000000064C70020000101000400000069
:100640007CB5002070C7002000000000B82007081B
:100650006CC70020020101000300000078B50020F3
:1006600078C70020000000005950030874C700201C
:10067000220201001C010000D8C1002080C7002018
:1006800000000000454005087CC700200102010071
:100690000B00000090B50020A0C800200000000062
:1006A000313505089CC8002002020100030000004B
:1006B000B4BA0020B0C80020000000000000000014
:1006C000ACC800201B0201001000000084BA00200A
:1006D000B8C8002000000000E5350508B4C80020B7
:1006E0001B2001000C0000004CB30020CCC80020EF
:1006F00000000000399A0108C8C800201500100049
:100700007000000028E80020B4E80020000000008D
:1007100000000000B0E800202A000800600000008F
:1007200038E7002028E9002000000000292D0208F9
:1007300024E900202C000400100000009CE90020A7
:100740008CE9002000000000F12A020888E900205E
:1007500029201400780000002CE40020B0E90020DB
:100760000000000000000000ACE900201A000100B9
:100770000E00000084E300202CEA002000000000AE
:10078000BC20070828EA00202B00120024000000EB
:1007900060E3002040EA002000000000C52A0208B3
:1007A0003CEA00201902010010000000FCE20020D9
:1007B00068EA0020000000001535050864EA002002
:1007C000F62101000C000000E0E100207CEA00209E
:1007D00000000000CC20070878EA00201C0202007C
:1007E0001C000000F8E10020D0EA0020000000001A
:1007F000B93F0508CCEA0020140001000500000004
:10080000A4E10020F0EA002000000000D820070842
:10081000ECEA0020F831010006000000B8ED0020ED
:10082000F4F0002000000000DE200708F0F00020B7
:100830000300010001000000C8ED002000F10020CD
:100840000000000000000000FCF00020101001007B
:1008500002000000B4F0002008F1002000000000B9
:10086000E420070804F10020190001000500000041
:100870003CED002010F1002000000000E6200708F9
:100880000CF10020290201004000000054F3002078
:1008900008F9002000000000EC20070804F90020FF
:1008A0002C0201000400000000F600204CF900209A
:1008B000000000002C21070848F900200A0201006E
:1008C00014000000ACF4002074F9002000000000C7
:1008D0007D5A030870F9002025201E002C0100001D
:1008E00020F600208CF9002000000000000000002D
:1008F00088F90020031201003D000000B8F8002034
:10090000BCFA00200000000030210708B8FA0020DF
:10091000020001000C00000024FB0020BCFB0020B2
:100920000000000000000000B8FB002004000800E8
:1009300080000000D80301205804012000000000BE
:1009400000000000DC050120081203000F00000079
:10095000C8030120E4050120000000007D350508E2
:10096000E0050120280204000400000034030120F7
:10097000F805012000000000E1350508F40501201C
:1009800027020400040000003003012000060120BB
:1009900000000000D5350508FC0501201F020800F5
:1009A000100000006C00012008060120000000007B
:1009B000DD340508040601201A0201003C00000095
:1009C00010FC00201C060120000000002D3F05083F
:1009D000180601203820010003000000D4FB00208D
:1009E0005C060120000000006E2107085806012067
:1009F0002700010004000000E0060120EC060120B1
:100A00000000000072210708E80601202B02010007
:100A10000C0000000C080120EC1301200000000075
:100A200076210708E81301201D02020006000000DD
:100A3000D413012000140120000000000000000079
:100A4000FC1301201002010001000000E04E012013
:100A5000DC4E01200000000082210708D84E012052
:100A60000403090412010002EF020140830456321C
:100A70000002010203010000120100020202004014
:100A80008304405700020102030100000902200014
:100A9000010104C0320904000002080650050705E0
:100AA00081024000000705010240000009026400C5
:100AB000030100C032090400000103000000092105
:100AC000110100012236000705830309000A080B03
:100AD00001020202010009040100010202010005F5
:100AE000240010010524010002042402020524064A
:100AF0000102070582030800FF09040200020A0040
:100B000000000705010240000007058102400000C7
:100B100009024300020100C0320904000001020280
:100B20000100052400100105240100010424020233
:100B30000524060001070582030800FF09040100DF
:100B4000020A0000000705010240000007058102BB
:100B500040000000FF000000140000FF0000000043
:100B600000000000AA5507010000AA550501000079
:100B70002D202D2D202D2D2D2D202D2D2D2D000026
:100B8000000000000000000000000000000000085D
:100B9000501606087D000000C1830008BD830008D0
:100BA000B9830008AD830008A9830008B583000855
:100BB000B1830008010000000000803F0501090525
:100BC000A101A100050109300931093209330935B4
:100BD0000934093609371581257F75089508810282
:100BE00005091901290815002501950875018102DB
:100BF000C0C0000009022200010100E03209040027
:100C00000001030102000921110100012236000741
:100C100005830309000A00000060024010600240E2
:100C2000000000000000000000000000000B0000B9
:100C30000000000000000000000000000060024012
:100C400028600240010000000000000000000000D9
:100C5000060C000000000000000000000000000082
:100C600000600240406002400200000000000000FE
:100C700000000000100D0000000000000000000057
:100C800000000000006002405860024003000000C5
:100C90000000000000000000160E00000000000030
:100CA0000000000000000000006002407060024090
:100CB000040000000000000000000000200F000001
:100CC0000000000000000000000000000060024082
:100CD00088600240050000000000000000000000E5
:100CE00026100000000000000000000000000000CE
:100CF00000600240A060024006000000000000000A
:100D000000000000301100000000000000000000A2
:100D10000000000000600240B860024007000000D0
:100D20000000000000000000362F0000000000005E
:100D30000000000000000000006402401064024057
:100D4000000000000000000000000000003800006B
:100D500000000000000000000000000000640240ED
:100D600028640240010000000000000000000000B4
:100D70000639000000000000000000000000000034
:100D800000640240406402400200000000000000D5
:100D900000000000103A0000000000000000000009
:100DA000000000000064024058640240030000009C
:100DB0000000000000000000163B000000000000E2
:100DC0000000000000000000006402407064024067
:100DD000040000000000000000000000203C0000B3
:100DE000000000000000000000000000006402405D
:100DF00088640240050000000000000000000000C0
:100E00002644000000000000000000000000000078
:100E100000640240A06402400600000000000000E0
:100E2000000000003045000000000000000000004D
:100E30000000000000640240B864024007000000A7
:100E40000000000000000000364600000000000026
:100E50000000000000000000000000000102030488
:100E6000010203040607080971E9000849F10008B6
:100E7000C1EC0008BD84000809870008CD84000883
:100E8000E9840008958400088584000800000000BB
:100E900000000000AA550B010000AA550501000042
:100EA000AA550902000000AA5503009F0100000096
:100EB000C012000001010000FF1FFF1FFFFFFFFF26
:100EC0007EFF0000FFFFFFFF54B200200000000083
:100ED0002CB2002000000000010100000000010011
:100EE000E00101FF01000000718E01080000000018
:100EF00000000000181D060808FF000000000000A8
:100F00000000000000000000A434060800000000FB
:100F100000000000000000005C3506080000000032
:100F20000000000000000000083506080000000076
:100F30000000000089AA01084EBD00200101FF0049
:100F4000FFFFFFFFA9E8010800000000000000000B
:100F50002436060809EC010800000000000000002B
:100F6000DC3506082D202D2D202D2D2D2D202D2D6D
:100F70002D00000000000000000000000000000044
:100F800000000000FFFFFFFFF5B4010800000000B3
:100F9000000000003434060801000000FA000000E0
:100FA00001000000010000009AB900200000F401D7
:100FB0000100000098B900200000F40101000000C9
:100FC00096B900200000F4010100000094B900204F
:100FD0000000F4010100000092B900200000F401BB
:100FE0000100000090B900200000F40101000000A1
:100FF0008EB900200000F4010100000039970108BB
:10100000FD96010800000000D41E06087EB90020ED
:10101000053201008CB900206400F40101000000D9
:101020008AB900206400C409010000007CB90020D6
:10103000E803D007010000007AB90020E803D007D8
:101040000100000078B90020E803D007010000008B
:1010500076B900201E00B80B0100000084B9002002
:1010600005000F000100000086B9002003000A00FF
:101070000100000074B900201E00F401010000000E
:1010800088B9002002000000601F060872B9002025
:10109000140064000100000080B900203200E80361
:1010A0000100000070B900200000C800010000002D
:1010B00051B8002000C8010050B8002000500100C5
:1010C0004FB80020005A01004DB800200200000077
:1010D000C81E0608D89A0608E09A06084CBD0020EB
:1010E0000100C409000000004ABD00200100C4093D
:1010F0000000000048BD00200100C40900000000FD
:1011000046BD00200100C4090000000042BD0020CF
:101110000100C4090000000044BD00200100C40912
:101120000000000040BD00200100C40900000000D4
:101130003EBD00200100C40900000000B1B5002040
:1011400000C80100B0B5002000C80100AEB5002005
:101150000000FFFF0A000000ACB500200100C8003D
:1011600001000000AAB500203200307532000000F6
:10117000A8B500207EFF140005000000A6B50020E1
:1011800005002C0105000000A4B50020055A05004B
:10119000A1B5002000FF0100A3B50020020000005F
:1011A0000C0800209FB5002003000000301706083F
:1011B000A0B5002000FF0100A2B500200200000041
:1011C0000C0800209EB50020030000003017060820
:1011D000F0B40020FF7F0100ECB40020000000000C
:1011E000FFFFFFFF01000000E8B400200000000046
:1011F000FFFFFFFF01000000E4B40020000000003A
:10120000FFFFFFFF010000008D9601081D960108F9
:1012100000000000B01F060840BA0020EE02CA0815
:10122000010000003EBA002000C801006400000078
:101230003DBA002002C80100640000003CBA002052
:10124000020000006C1F06088AB500200000803EE6
:101250000500000088B5002080C1803E0500000028
:1012600082B500200083007D0500000080B50020CD
:1012700080C1803E050000007BB5002000FF01001A
:1012800074B500206400F4010100000072B5002074
:101290006400F4010100000070B500206400F40156
:1012A000010000006EB5002004000000BC2006080C
:1012B0006DB5002002000000D02006083DB60020D9
:1012C0000D000000DC2006083AB600200064010092
:1012D00038B60020320010270A00000036B6002081
:1012E0000D000000DC20060835B600200D000000CF
:1012F000DC20060834B6002002000000781F060833
:10130000000000000000000000000000142106089A
:1013100045BA0020460000004C21060843BA0020D0
:10132000030000006822060844BA00200400000000
:10133000841F06083FB6002003000000782206083C
:101340003EB6002003000000782206083EB80020C8
:10135000000A01003CB800200000E8030100000082
:101360003AB800200000E8030100000038B800206F
:10137000000A010036B800200000E8030100000068
:1013800034B800200000E8030100000008B8002085
:10139000C800E803010000000EB800203C00FA007D
:1013A000010000000CB800200100E803010000006B
:1013B0000AB80020000501004CB80020020000001F
:1013C000981F06084AB800200000F4010100000040
:1013D00048B800200000F4010100000046B80020D9
:1013E0000000F4010100000044B800200000F401F6
:1013F0000100000042B800200000E80301000000E6
:1014000040B800200000E803010000005EB90020A1
:10141000006401000A0000005DB9002000640100C2
:101420000A0000004BB90020196401004AB90020ED
:1014300002000000A41F060848B90020E803D007F6
:101440000A00000046B90020006401000A00000004
:101450003BB90020006401003AB90020006401009B
:1014600042B90020006401000A00000041B90020D8
:10147000006401000A00000040B90020006401007F
:101480000A00000045B9002000FF01000A0000002A
:1014900044B9002000FF01000A00000043B9002009
:1014A00000FF01000A0000003FB9002001FF010019
:1014B0000A0000003EB9002001FF01000A00000000
:1014C0003DB9002001FF01000A00000048B60020DD
:1014D0000000F4010100000046B600200000E8030F
:1014E0000100000044B600200000E80301000000F5
:1014F00042B600200000E8030100000040B60020D2
:101500000000E803010000009FBD002000960100DC
:1015100096BD002000C8010095BD002000640100B8
:1015200094BD00200064010093BD00200064010010
:1015300092BD00200064010091BD0020FF08010061
:1015400090BD0020016401000D950108D1940108AF
:10155000000000008822060899BD00200132010029
:1015600098BD002001000000F822060897BD002069
:1015700004000000002306088FBD00200096010033
:101580008EBD0020006401008CBD00201400E80323
:10159000010000008ABD0020000030750A00000034
:1015A00088BD002000C8010087BD002000C80100E0
:1015B00086BD002000C801009CBD00200032010053
:1015C0009EBD0020001401009DBD0020004B0100C5
:1015D0009BBD002004000000142306089ABD0020D3
:1015E000006401000A0000006AB900200AC8050072
:1015F0000A00000069B90020010000002423060849
:101600006CB900200AC805000A0000006BB9002070
:10161000010000002423060861B9002000C805006D
:101620000A00000068B9002000C805000A00000098
:1016300062B9002000C805000A00000063B900205C
:1016400000C805000A00000066B9002000C80500B7
:101650000A00000067B9002000C805000A00000069
:1016600065B9002000C805000A00000064B9002028
:1016700000C805000A00000060B900200200000058
:101680002C230608AEBD00200000D007010000009A
:10169000A8BD002000C80100A7BD002000C80100AF
:1016A000A6BD002000C80100ACBD00200000D0078E
:1016B00001000000A5BD002000C80100A4BD00205D
:1016C00000C80100A3BD002000C80100AABD002081
:1016D0000000D00701000000A2BD002000C80100EA
:1016E000A1BD002000C80100A0BD002000C801006D
:1016F00010AC060800000000000060C400201CAC14
:101700000608070800000000200E002024AC060890
:10171000070800000000180E00202CAC060807087F
:1017200000000000100E002034AC0608080800007D
:101730000000040E0020F8950608070800000000CD
:10174000FC0D002000960608070800000000F40DBC
:10175000002008960608070800000000EC0D002095
:10176000B4960608080800000000E00D00203CAC1C
:101770000608071000000000D80D002044AC060841
:10178000071000000000D00D00204CAC0608071028
:1017900000000000C80D002054AC0608081000002E
:1017A0000000BC0D0020409A060801000000000067
:1017B0000000000000000000100000000000000019
:1017C000000000009592010879920108D1B4010847
:1017D0003823060831B60020005A010030B6002038
:1017E00000C801002EB60020E803D0070100000069
:1017F0000000000000000000C9AA0108D423060868
:101800009DB50020030000001C2406089CB50020A4
:10181000000301009BB5002000030100B591010801
:1018200069910108000000002C2406082991010894
:10183000E190010800000000C82406080192010898
:10184000B5B4010800000000482506088CB500204A
:1018500001030100358E01080D8E01080000000013
:10186000BC280608F9970108CD9701080000000080
:101870003C29060851900108F98F0108000000007A
:10188000AC290608A592010871F6010800000000C5
:10189000642A0608ADB90108259801080000000077
:1018A0000C2B060801930108000000000000000056
:1018B000A82B0608E59301088593010800000000A5
:1018C0000C2C06088D9401084994010800000000C2
:1018D000C42C0608D109020849950108000000003F
:1018E000502D06086EB90020010601004993010839
:1018F0001593010800000000682E0608ED08020894
:101900007DB6010800000000D82E06087995010870
:101910009DB701080000000054300608150A0208AF
:101920005DB7010800000000280E00206DB90020FE
:10193000010301004992010819920108000000000A
:101940006031060855B401080000000000000000E6
:10195000C4310608A99001089DB4010800000000E8
:1019600060320608000000000000000000000000D7
:10197000FC320608F5950108E9B8010800000000EE
:101980007C3306080000000000000000000000009A
:10199000A43506085C3000209CFF2C0100000000EC
:1019A00088C30020E0150C170000000091C3002040
:1019B00002000000DC38060868B5002088136F17A5
:1019C000010000006AB5002088136F1700000000B6
:1019D0001C30002000000000000000001A30002031
:1019E000000000000000000018300020000000008F
:1019F0000000000016300020000000000000000081
:101A00001430002000000000000000001230002010
:101A10000000000000000000E805002000000000B9
:101A200000000000F1B4002003000000C0360608EA
:101A300060B5002088136F17010000002E6B002096
:101A400088136F1700000000398F010800000000A4
:101A500000000000D036060809BD0020010000008B
:101A600024370608306B00200100000030370608DC
:101A7000266B002002000000383706080000000036
:101A8000000000000000000044370608218F010814
:101A90000000000000000000E03706080000000021
:101AA00000000000000000003438060800000000BC
:101AB0000000000000000000A43806086CB50020FB
:101AC00002000000DC3806082A6B0020E0150C1725
:101AD00000000000FCDA002050DB002001F11F3F75
:101AE000D60101010001010100FF000025290208C3
:101AF000547D0020FFFFFFFF0000803F000000003A
:101B000000000000000000000000000000000000D5
:101B100000000000000000000000000000000000C5
:101B20000000803F000000000000000000000000F6
:101B30000000803F000000000000000000000000E6
:101B40000000803F000000000000000000000000D6
:101B5000010000000000FA430000FA430000803F4B
:101B6000DDE20308000000000000000000000000AB
:101B700060FECD000000000060F9002008000000B9
:101B80000000000050F9002008000000FFFFFFFFE8
:101B9000FF000000298B000819860008A1EC00084E
:101BA00000000000818400083DE90008DD8A00088B
:101BB000B1E8000800000000000000003D840008BB
:101BC000D1830008C58300082DE0000849E0000823
:101BD00011E00008F5DF0008D9DF0008E18A0008FD
:101BE000F5850008EDEB00080000000055840008B2
:101BF000B5E80008B18A00080DE800080000000000
:101C00000000000049840008F8C006085497060840
:101C100000000000E1500308A0860100040000005D
:101C2000F8C0060800C1060800000000D11C040826
:101C3000E803000004000000E8A00608000000001F
:101C400000000000615203087D000000FF0000005A
:101C5000EC9E06080000000000000000ED5F030895
:101C60007D000000FF00000018A40608000000002E
:101C700000000000DD1103087D000000FF000000EF
:101C800080A1060800000000000000007920040880
:101C9000E80300000300000008C10608000000007F
:101CA00000000000A9F50208102700000300000052
:101CB0006CCA06080000000035290208958A04084D
:101CC0005F7600000500000020CE0608000000003E
:101CD000000000006DB7040810270000020000009B
:101CE00014C106080000000000000000D51C040814
:101CF000E80300000500000020C106080000000005
:101D000000000000D15C0308204E0000030000002A
:101D100030C106080000000000000000B95A0308A6
:101D2000204E00000300000040C106080000000033
:101D300000000000BD250408400D03000300000062
:101D40006CBF0608000000000000000059E0030816
:101D50001027000002000000809706080000000025
:101D600000000000F9CA010810270000030000006D
:101D7000409D06080000000000000000651B0408EC
:101D8000A86100000200000088BF060800000000F3
:101D90000000000009540408A00F00000200000029
:101DA00050C10608000000000000000085F1010895
:101DB000102700000200000020AE0608000000000E
:101DC000A9150108B5710108854501000200000050
:101DD000009D0608000000000000000041110108FD
:101DE00010270000020000006897060800000000AD
:101DF00000000000B9FF010850C30000020000000D
:101E00005CC106080000000000000000B9160108CF
:101E1000400D03000100000064C10608000000003E
:101E200000000000D1C00308400D030002000000C4
:101E30006CC10608000000000000000031DA010853
:101E400050C300000300000078C106080000000035
:101E500000000000558A030840420F000100000006
:101E600084C10608000000000000000041C3030810
:101E700050C300000100000090C1060800000000EF
:101E800000000000A55A0108102700000200000011
:101E900071C2030800000000000000000000000004
:101EA000511B0408000000000000000000000000BA
:101EB00001000000A00F0000B80B00000102FFFFAE
:101EC0000100000048CA06080000080205030300DC
:101ED0000000000054CA06080100080205040300BF
:101EE0000000000060CA06080000080205030300A5
:101EF0000000000068CA060801000802050403008B
:101F000000000000DCBE06080200FE010110030014
:101F100000000000349E06080300140200030000C5
:101F20000000000070CA060804001F02020008003A
:101F30000000000078CA060805001F020201080020
:101F400000000000FFFF0000FFFFFFFF1A0300007A
:101F50000000000000000000000000000000000081
:101F60000000000000000000040309041201000248
:101F70000000004083042057000201020301010019
:101F800000010000204E00000000000000000000E2
:101F90000200000000000000D01A0020F813012009
:101FA000020000000100000051370508CC1A002093
:101FB0000000000001000000010000008D3705084E
:101FC000C816002000000000000000000000000013
:101FD0000000000000000000000000000000000001
:101FE00001000000000000000000000000000000F0
:101FF00000000000010000000000000000000000E0
:1020000000000000000000000100000000000000CF
:10201000D8000000000000000500000006000000DD
:1020200005000000DD4005080936050805360508ED
:102030000136050829420508FD350508F93505086A
:10204000148C0608B58B0008D585000809EA00083D
:10205000000000000000000001E7000829E7000878
:1020600000000000000000000000000031840008B3
:10207000A13605089536050849470508654705084E
:102080004D3605082D4705081147050803000000D7
:1020900000000000050000000000185006000000CD
:1020A000D007000001040C000101186007000000C7
:1020B000A00F000002040E000203187007000000C9
:1020C0000A1A000003040C00030518900600000023
:1020D000204E000000020C000000000097FFFFFFF0
:1020E00081060000C4090000C409000003000000CC
:1020F000881300000101000094FFFFFFE40C0000C2
:10210000B80B0000C409000006000000881300009E
:102110000203000090FFFFFFEF160000AC0D00006F
:10212000C40900000A000000881300000305000035
:102130008BFFFFFF0B480000A00F0000C409000048
:102140000000000088130000C81A002000000000F2
:102150000400000000000000A95505080000000070
:10216000000000000000000001000000000000006E
:10217000C41A00200000000002000000000000005F
:102180000000000000000000000000000800000047
:1021900001000000F95405080000000000000000E4
:1021A00000000000010000000000000086000000A8
:1021B000E4180020000000000400000000000000FF
:1021C000D9560508000000000000000000000000D3
:1021D0000100000000000000B01A0020DC13012004
:1021E00004000000000000004D550508000000003C
:1021F00000000000000000000100000000000000DE
:10220000C01A0020000000000400000000000000D0
:10221000A9550508000000000000000000000000B3
:102220000100000000000000BC1A0020E41301209F
:102230000400000000000000B55A0508000000007E
:10224000000000000000000001000000000000008D
:102250001B0000008819002000000000030000009F
:10226000000000000000000000000000000000006E
:1022700008000000010000000955050800000000EA
:10228000000000000000000001000000000000004D
:10229000B81A0020E0130120040000000000000034
:1022A00019550508000000000000000000000000B3
:1022B0000100000000000000B41A0020000000002F
:1022C0000400000000000000A955050800000000FF
:1022D00000000000000000000100000000000000FD
:1022E00097000000181A0020000000000300000002
:1022F000000000003D55050800000000000000003F
:10230000000000000100000000000000010101FFCA
:102310001F0000001C0000001F0000001E00000045
:102320001F0000001E0000001F0000001F00000032
:102330001E0000001F0000001E0000001F00000023
:102340000068214C000000000000000000000000B8
:10235000010000000000000000000000000000007C
:10236000000000000100000000000000F401000077
:1023700001000000388C0608150000008200FFFFF5
:10238000170000001D0000008200FFFF1A0000007F
:102390008300FFFF0600000005000000FF000000B2
:1023A000A400000000000000000000000000040184
:1023B0000000020001000002100000000700000001
:1023C00000000000000000000102030406070809E5
:1023D000C70000000500000006FF0000181B0020D9
:1023E00000000000000000000000000000000000ED
:1023F00000000000000000000000000000000000DD
:1024000000000000000000000000000000000000CC
:1024100000000000000000000000000000000000BC
:1024200000000000000000000000000000000000AC
:10243000000000000000000000000000000000009C
:082800000000000000000000D0
:10800000134B0268196821EA02011960596821EAD4
:108010000201596019680A431A609968026821EAE6
:1080200002019960D96821EA0201D96041791029D9
:1080300007D001F1804303F59E3319680A431A60A3
:108040007047996811439960D9680A43DA607047AC
:10805000003C01402DE9F04700230F6801264FF056
:10806000030C02E00133102B41D006FA03F232EA8E
:108070000704F7D1D0F800E05C000CFA04F52EEA12
:10808000050EC0F800E091F80490D0F800A009FABD
:1080900004FE09F1FF394EEA0A0EB9F1010FA846B4
:1080A000C0F800E06FEA050515D8D0F808E005EA49
:1080B0000E0585604D79D0F808E0A54045EA0E052B
:1080C0008560456825EA020242608A7945689A40DF
:1080D00092B22A434260C26822EA0802C260CA79A8
:1080E000C568A24001332A43102BC260BDD1BDE850
:1080F000F08700BF074AD2E9003199421FBFD1186B
:108100000133097A01701DBFC3F30A030120136014
:1081100000207047781B0020064AD2F80838D2F8B1
:108120000C28934294BF4FF400600020013B9B1A3F
:1081300018447047781B0020012380F851307047A5
:1081400007B501A8FFF7D6FF0028FAD09DF8040074
:1081500003B05DF804FB044BD3E90003984288BFE9
:1081600003F50063181A7047781B00200120704740
:10817000024BC3F81028C3F814187047781B00206E
:10818000024BC3F81828C3F81C187047781B00204E
:108190007047704730B4124DD5E900239A4286BF2C
:1081A00003F50064A21A9A1A0A44B2F5006F11D8B6
:1081B00099B101444A1E013810F8014FE918824272
:1081C00003F101030C72C3F30A03F5D16B600020C5
:1081D00030BC7047022030BC70470846F8E700BF4B
:1081E000781B0020F8B51A4C94F82038002BFBD1EE
:1081F00059B301444E1E451ED4F80C28D4F8081873
:1082000015F8017F531CC3F30A038B422CBF4FF4B4
:1082100000600020C91A224401440129C4F80C3826
:1082200082F824780FD101203CF0CEFCD4F8083835
:10823000D4F80C188B4294BF4FF4006200225B1AF2
:108240001344012BEFD0B542D6D10020F8BD00BFBA
:10825000781B002010B5094C54F8D43C0846114650
:108260005BB154F8D43C052B07D1002A54F8D03C1C
:1082700003DDFFF7B7FF54F8D03C10BD702C002091
:1082800010B590F85010002380F8503081B10B4C9D
:1082900054F8D42C72B154F8D42C052A0CD13C30AB
:1082A00054F8D03CFFF79EFF54F8D03C012010BD9D
:1082B0000120FCE71046FAE71846F8E7702C00208A
:1082C000002280F85120DBE790F85020531C024434
:1082D000DBB280F8503082F83C1090F851200AB19F
:1082E000132B00D9CCE77047212838B50C4605D0B0
:1082F00022282FD0202813D0002038BD0029FBD001
:10830000072AF9D11A4B53F8CC0C13F8C81C13F8F0
:10831000C72C13F8C63C206021716271A371EBE792
:108320000029E9D0072AE7D1124AD2F814381BB144
:10833000D2F81008096898470D4B256820796179B3
:10834000A27943F8CC5C03F8C80C03F8C71C03F807
:10835000C62CD1E70029CFD0022ACDD1054AD2F8C8
:108360001C38002BC8D00988D2F818089847C3E7F2
:10837000702C0020781B0020024B002043F8D40C06
:10838000704700BF702C0020054B064A00200521D5
:1083900042F8D41CC3F81C08C3F81408704700BF87
:1083A000781B0020702C0020704700BF704700BF72
:1083B000704700BF704700BF704700BF704700BFE5
:1083C000704700BF042301480B80704798010020CC
:1083D00010B4074A074B12F8C40C122403F114021C
:1083E0000C8001280CBF184610465DF8044B7047FE
:1083F000702C00209C01002010B40C4A12F8C03CE4
:1084000002EBC3010133DBB2042B4FF0050408BFBC
:1084100000234FF4045001F8BC4C02F8C03C41F872
:10842000B80C5DF8044B4FF0FF307047702C002003
:10843000202301480B807047C401002064230148B9
:108440000B807047E4010020432301480B807047F4
:108450004802002010B5084CD4F8F400FF2808D0DA
:10846000064951F89C2C9839FFF73EFFFF23C4F8CA
:10847000F430002010BD00BF98010020702C0020B7
:10848000E8E700BF08B5D0F8E4355B6A98470020FC
:1084900008BD00BF08B5D0F8E4351B6A9847002036
:1084A00008BD00BFD0F8E43510B504461B689847F6
:1084B000D4F8E8359B689847002010BD08B5D0F87F
:1084C000E435DB6903B19847002008BD08B50422F4
:1084D00090F81211D0F8E83580F8131180F81221C5
:1084E000DB689847002008BD10B5D0F8E835044691
:1084F0001B699847032384F81231002010BD00BF88
:108500000B0617D401EB810300EBC30310B400EB9F
:1085100081000124002283F8764383F8741383F8E2
:108520007523426D5DF8044B136843F4001300207B
:108530001360704701F07F0101EB810300EBC3037F
:10854000012200EB810083F81C1183F81E2183F8BF
:108550001D2182691368002B01DA43F0804343F444
:1085600000131360002070470B0630B41CD401EBDD
:10857000810200EBC202002300EB810582F8741334
:1085800082F8753301241A4604FA01F16D6D61F326
:108590001F4201696FF3CF332B60CB6923EA0203DB
:1085A000002030BCCB61704701F07F0101EB8104FA
:1085B00000EBC404012200EB8105002384F81C11A8
:1085C00084F81D2102FA01F11A46AD6961F30F0228
:1085D000DFE700BF10B581210446FFF7C5FF204645
:1085E0000121FFF7C1FF024B002003F8900C10BDE2
:1085F000702C002010B581210446FFF7B5FF2046FE
:108600000121FFF7B1FF82212046FFF7ADFFFFF701
:10861000B3FE002010BD00BF38B50D4604468321CF
:10862000FFF7A2FF29462046FFF7E4FF002038BDF0
:10863000F0B416460A063AD401EB810500EBC505F5
:108640002824002204FB0104022B85F87413C5F8CA
:108650007C6385F8773385F8752304F55D7448D01D
:10866000154600EB8107012202FA01F17F6D61F3EB
:108670001F45D7F800C01CF4004F11D1E4882049F1
:1086800046F0805242F4004242EA834204F00F0472
:108690001C4B42EA845211400CEA0303194339602F
:1086A0000269D3692B430020F0BCD361704701F00D
:1086B0007F0101EB810500EBC5052824012204FBA5
:1086C0000104022B85F81C11C5F8246185F81F31BF
:1086D000A5F8221185F81D2104F58E740CD0002513
:1086E00000EB8107012202FA01F1BF6961F30F0576
:1086F000BFE722711546B4E700252571F0E700BFFA
:10870000FF87CC13007833EC002310B519460446DC
:108710004022FFF78DFF8021204600234022FFF7F3
:1087200087FFD4F8E835A078012284F812215B682D
:108730009847002010BD00BF82B00023016801935C
:108740000B6901930E4B03E00A690192013B13D0C0
:10875000019A002AF8DA019A094B42F001020192CB
:10876000019A0A610A69019203E00A690192013BD8
:1087700002D0019AD207F8D4002002B0704700BF9F
:10878000400D0300436D064A1A61C278012A06D1E2
:1087900000F2CC5058614FF0802219681A6070477F
:1087A0001800086010B580210446FFF7A9FE204696
:1087B0000021FFF7A5FE2046BDE81040E2E700BF1C
:1087C00070B44B78012B26D00B784A6900EB8303F9
:1087D0005C6D25682369D2B18A684A6102F07F0224
:1087E00023F4002323F07F0342F400221343236188
:1087F000C378012B04BF0B696361C5F3076363F0A2
:108800007B0363F31F652560002070BC70478A6896
:1088100002F07F02E4E782694C691568136944B38A
:108820008E68B4428CBF06F07F0404F07F0423F40A
:10883000002323F07F0344F4002443EA040388BFA9
:108840004E611361C378012B1DD0C5F3076464F03A
:108850007B0464F31F651560002BD5D14B69002B99
:10886000D2D002690878516B012383400B435363D4
:10887000CAE723F4002323F07F0343F400231361AA
:10888000C378012BE1D10B780C6900EB8300C5F3B1
:108890000763816963F07B0363F31F654C6100200C
:1088A000156070BC704700BF2DE9F0434B78012B79
:1088B00030D00B784C6900EB83035E6D3568376907
:1088C0001CB38B681C44013CB4FBF3F4C4F30902F1
:1088D00003FB02F3C3F312034B61144643EAC443A0
:1088E00063F31C073761C378012B04BF0B69736105
:1088F000CB78012B44D0C5F3076363F07B0363F3AC
:108900001F6535600020BDE8F0838A680124C2F34A
:108910001203E3E791F800804E6900EB880EDEF861
:1089200018C0DCF80050DCF8107076B3D1F808906D
:10893000384A06EB0904013CB4FBF9F402EAC444EA
:10894000C6F312022243CC7807F060473A43012C69
:10895000174649D0CCF81020C278012A55D00269B8
:10896000516B03FA08F30B435363C5F3076363F0DA
:108970007B0363F31F65CCF800500020BDE8F08353
:108980004B7973B345F00055B5E707F0604747F4FE
:108990000027CC78CCF81070C378012B2FD0012C95
:1089A000E3D102699268D20554BF45F0005545F005
:1089B0008055C5F3076262F07B0262F31F65CCF855
:1089C0000050002B9ED1B0B203308010DEF8D040B2
:1089D00098D0CA6852F8041B216001339842F9D13B
:1089E00090E745F0805586E764F35E77CCF8107029
:1089F000C378012BD5D10A69CCF81420D1E70A69D4
:108A0000CCF81420012CB0D1CBE70B69CCF8143092
:108A1000ABE700BF0000F81F38B501EB810400EBA5
:108A2000C4040D46002184F87453C4F88C1384F8F0
:108A30007513C4F88833C4F88023C3782821012B28
:108A400001FB050108BFEDB201F55D7108BFC4F877
:108A500084231DB9FFF7B4FE002038BDFFF724FFC3
:108A6000002038BD70B5104B53F8842C13F86C5CA3
:108A700004461AB113F8803C2B430DD081212046C7
:108A8000FFF73EFD022D00D070BD2046074ABDE82D
:108A900070401F230121BFE70121FFF731FD204670
:108AA0008121BDE870402BE5702C0020E42B0020D4
:108AB00010B501EB8101084A00EBC1010446B1F891
:108AC0008C131046FFF766FB034A20464023012122
:108AD000FFF7A2FF002010BD082C0020E8E700BF30
:108AE00010B50223044640228121FFF7A1FD204654
:108AF000022340220121FFF79BFD82212046032310
:108B00000822FFF795FD064B02229A83FFF73CFCF3
:108B1000044A204640230121FFF77EFF002010BDBC
:108B200098010020082C002038B509220D46044683
:108B300003238321FFF77CFD29462046FFF7D0FF62
:108B4000002038BD82B000230193019A094B42F006
:108B500010020192C168019A0A610A69019203E058
:108B60000A690192013B02D0019AD206F8D4002092
:108B700002B07047400D030082B000230193019AB8
:108B80000B4B42F020020192019A61F38A1201928A
:108B9000C168019A0A610A69019203E00A690192B7
:108BA000013B02D0019A9206F8D4002002B070472F
:108BB000400D030070B50446144EFFF70BFD204630
:108BC000022340228121FFF733FD4022012120466C
:108BD0000223FFF72DFD56F8283C00251B6806F8F8
:108BE000905C284606F86C5C98472046FFF7AAFF81
:108BF00020460121FFF7C0FF2046A6F18C021F236B
:108C00000121FFF709FF284670BD00BF702C00202E
:108C10000E4BDA68D20310D4DA68D1060FD4DA68C2
:108C2000D20510D4DA6812F0E00F0AD1DB6813F035
:108C3000020F14BF0820092070470120704706204A
:108C40007047072070470220704700BF003C024079
:108C500000207047134A52F8240CC8B152F8203C47
:108C6000B3B1884212D88B4234BF00230123DBB258
:108C70005BB152F8183C42F81C1C99421FBF0A4BCA
:108C800042F8181C142083F8F80070470023EEE720
:108C9000A1F59C53083BB3F57A7F2CBF0023012339
:108CA000E6E700BF702C002098010020064B13F867
:108CB000132C03F8141C8A421FBF044A03F8131C28
:108CC000142082F8F8007047702C002098010020D2
:108CD000704730B1034B13F8120C012894BF0020E9
:108CE00001207047702C002008B5FFF7F2FF60B13B
:108CF000064A12F8113C12F8142C5B0003F0020330
:108D0000002A18BF43F001030B6008BD702C00203F
:108D100008B5FFF7DEFF18B1024B53F8103C0B808B
:108D200008BD00BF702C002070B5FFF7D2FF60B106
:108D30000B4A32F80C5C3DB152F8086C0023B34288
:108D40001C4603DB002000E00D7070BD02EB440404
:108D5000013334F8044CAC42DBB2F0D10B70F4E7D1
:108D6000702C002008B5FFF7B4FF10B100230B7082
:108D7000137008BD0420704728B1034B93F9FA0023
:108D8000003818BF012070479801002008B5FFF790
:108D9000F3FF50B1054B93F9FA20012AC3BF93F8B2
:108DA000FD30C3F340030B60002008BD9801002094
:108DB00008B5FFF7E1FF18B1024B93F8FC300B70D8
:108DC00008BD00BF9801002070B5FFF7D5FF38B18E
:108DD0000D4C94F8FD30DB0703D500230B701370A6
:108DE00070BD0A4D94F9FB302E7B93FBF6F30133F3
:108DF0000B7094F9FB40297B94FBF1F301FB1343C7
:108E000001331370ECE700BF98010020702C0020A4
:108E10000320704770B5084A137C06255E1CB6FB1C
:108E2000F5F405FB1464557CAC421EBF02EBC30392
:108E30001474C3E9050170BD702C0020002230B508
:108E400004461046914200DC30BDA35C0825584022
:108E500010F0800F4FEA400318BF83F0D503013DA7
:108E6000D8B2F5D10132EDE710B5D9B10E4B586C3F
:108E7000814217DCB2B1DB689A4213DC0B4C013A39
:108E8000013903FB012184F8081104F582700521E2
:108E9000FFF7D4FF062184F8090104F58270BDE8CC
:108EA0001040B7E710BD00BF702C002098010020D3
:108EB000124B30B49C6CFCB100220F2583F84E108D
:108EC000090A83F84D0083F84F101A655A659A65B0
:108ED00083F84C5003F14C00012110F8015F01317F
:108EE0002A440E29D2B2F8D183F85A2020460449E8
:108EF00030BC10223CF050BA30BC7047702C0020BF
:108F0000BC2C0020024B002183F85C101966CFE7CF
:108F1000702C00202DE9F04FDFF878A3CE4D564697
:108F200086468C4617460FCE05F164042DED068B60
:108F30000FC40FCE0FC496E807008BB095F89A3097
:108F4000059784E80700CDE906EC042B00F2508178
:108F5000DFE813F0B6014E0149010500C5019FEDA0
:108F6000BF8ADFEDBF8ABF49C5F88010BE49BF4B3D
:108F7000BF4AE9670599002918BF134638EE887A79
:108F8000F5EE006AC6EE879ABA4EC5F88830A6F1AB
:108F9000120B06F1C0080027DFEDB77A9FEDB79AF4
:108FA00028EE278AB0EE67AA079BBB4200F0158126
:108FB0001BF8012BAB1893F89F40002C00F01D818B
:108FC000002102E0152900F0188101EB41004B005F
:108FD00018F800C0A44501F10101F3D1284490F82C
:108FE0007D11002900F06A812046CDE903233AF083
:108FF00025FDDDE9032381464846CDE903233AF008
:1090000063FE90F800C0BCF1000F40F0F680039AB8
:10901000049B01322B44D2B2032183F8BD2183F893
:10902000BC11B9F1000F00F0E8802309013B032BCC
:1090300004F00F0000F205810AEB4304B4F82CC0E1
:109040004CFA00F414F0010400F03681012404FA13
:1090500000F0013800EA0C00CDE9032355F03EFF93
:10906000049BDFF834C2039A5344032193F834304D
:1090700018440CEBC00373619971DA715CF830002D
:1090800099F8082000F13F4101F57E010AEB91219A
:1090900091F8381001F01F0C4909032904FA0CF467
:1090A00000F00381042900F0F980022900F0CC804F
:1090B0009B880893B3FA83F3C3F11F03C3F3CC0176
:1090C00000EB810103F007030C6A9B004FF00F0CCB
:1090D0000CFA03FC24EA0C040C620C6A02FA03F397
:1090E00023430B62022308A90993FEF7B3FF059BF4
:1090F000002B00F08E80B5F89830D5F8701307EE8D
:10910000903AF8EEE77AFCEEE77A17EE900AB1FBB8
:10911000F0F202F57F42FF32120CB1FBF2F2B2FB29
:10912000F0F083B295F89A1004290BBF07EE900A6D
:1091300007EE902AF8EE677AF8EE676A05BF07EE49
:10914000102A67EE8A7A66EE887AF8EE476A29EE88
:10915000677A95F89B0006990091A6EEA87A01908F
:1091600049463046C6ED027A86ED037A2FF02CF898
:10917000002F62DD7368D5F8C02093425FD0012FC5
:109180005BD0D5F8D820934259D0022F55D0D5F8CE
:10919000F020934253D0032F4FD0D5F808219342AB
:1091A0004DD0042F49D0D5F82021934247D0052F28
:1091B00043D0D5F83821934241D0062F3DD0D5F881
:1091C0005021D31A18BF012301370122082F33740D
:1091D000727406F118067FF4E7AE29480BB0BDECB7
:1091E000068BBDE8F08F9FED278AF0EE488ABAE63D
:1091F0009FED258AF0EE488AB5E6244A1C4BC5F857
:1092000080200020C5F888300BB0BDEC068BBDE88F
:10921000F08FB0EE690A56F00DFDFCEEC07A4FF605
:10922000FF7317EE902AD5F87013B1FBF2F21A44CF
:10923000120C1846B1FBF2F274E70123C4E70023D5
:10924000C2E7C6F814C052E71149D1F844C044EA55
:109250000C044C642CE700BF702C0020ACC5A73771
:10926000ACC5A7362D510308F11E04089D4D030817
:10927000E51E04082C2D00206F12833A00007A446A
:10928000D42C0020282930386F120339ED4E030802
:1092900000380240FC130608582E00201149D1F86E
:1092A00030C044EA0C040C6302E70E49D1F840C018
:1092B00044EA0C040C64FBE6746118E789469BE6FB
:1092C0009FED098A094A0A4BC5F88020EB67002206
:1092D0000123CDE90532F0EE488A064B4EE69FEDBC
:1092E000068AEFE7003802406F12833A2D510308D7
:1092F000F11E0408E51E040800000000F8B505464C
:10930000262025F05DFD144C014608BBD4F87403FB
:1093100090F838301E3B012B02D894F881330BB102
:109320003CF06EF80D4F0026AE4209DBB4F8A233D4
:109330000133A4F8A23354F8D03CC4F8B433F8BDD8
:1093400017F8011BD4F874033CF05AF80136EBE728
:10935000002384F8B033EEE7702C0020F22F0020B9
:1093600038B5124C637C227C9A4218D004EBC303BC
:10937000D3E9052004F282310023984210DC93786F
:10938000C4F8B8035B0884F8B033FFF7B7FF637C19
:1093900006210133B3FBF1F201FB1233637438BDD4
:1093A000D55C01F8015B0133E7E700BF702C0020BA
:1093B00013B504462620019125F002FD019920B93C
:1093C000204602B0BDE8104072E502B010BD07B5FE
:1093D0000DF1060215F08EF870B1094BBDF80620AC
:1093E000B3F8BC1323F80C2C91421FBF0549A3F816
:1093F000BC23142081F8F80003B05DF804FB00BF23
:10940000702C00209801002013B50446FFF7B4FC2F
:1094100008B300230DF106022046ADF8063015F022
:1094200069F8C0B10D4C9DF8062094F9FA1084F843
:109430000E21032908BF62F07F024FF005010848A2
:1094400008BF84F80E21FFF7F9FC062184F80F010C
:109450000348FFF7DFFC02B010BD00BF98010020F9
:10946000A20200202DE9F743C14CA36C0D4643B185
:109470004FF0020800274FF00109A06C3BF0BCFF41
:1094800060B9002614F8123C042B00F26B81DFE86F
:1094900013F09100EF00030150015901A06C3BF063
:1094A000A3FF236E5A1C2344226683F8BE0394F85C
:1094B0005C30012B09D0022B10D0002B76D10F2865
:1094C0000CBF84F85C902366D7E7A0F17203012BF0
:1094D00001D976286AD184F85C80CEE7102ACCD1F5
:1094E000A4490023012211F8010F013203440E2A7E
:1094F000DBB2F8D194F8CC2384F85C709A422766EA
:10950000BBD194F8CD33002BB7D194F8BF63732E41
:109510003FD0762E0FD0722EAFD194F8C12394F89D
:10952000C03353EA0223A8D044F8243CB4F8C23331
:1095300044F8203CA6E794F8C12394F8C03353EADA
:1095400002239AD094F8C31394F8C22394F8C70363
:1095500044F8103C42EA012294F8C41304F8111CA8
:1095600094F8C51384F8D01394F8C613A4F8CE2346
:1095700041EA0021A4F8D21354F81C1C09B944F89C
:109580001C3C34F80C3C002B7FF47CAF24F80C2CF2
:1095900078E794F8C52394F8C43343EA02231AB257
:1095A000002B3FF46AAFA4F8D4236BE784F85C7017
:1095B000276662E7722E4DD1012304F8123C002287
:1095C00094F8DC33402B36D134F80C0CA4F8E26369
:1095D00094F8D06314F8123CB4F8CEC3A4F8E03386
:1095E0000502330314F8141C54F8107C05F470655C
:1095F00003F440532B434FEA0C1543EA8133EDB299
:109600002B4354F81C5C1BB2BD4214BF0825002537
:109610001343604514BF042000202B430343B14291
:1096200014BF022100211943534BA4F8E41393F80B
:10963000F830A4F8E633636C23B154F8083C002BEF
:1096400040F0A4804D494E481F2203B0BDE8F043CE
:1096500057F0C1BED4F8D8334A4AEB1A934201DC22
:109660000022ADE77220FFF74DFCC4F8D853F7E7AE
:10967000762E04D1022304F8123C0022A0E7D4F88D
:10968000D833404AEB1A9342EADD7620FFF73AFCE2
:10969000C4F8D853002293E7374FD4F8D83397F85B
:1096A000F820EB1AB2B3374A934236DD14F8112C86
:1096B000D2071FD454F81C1C54F8102C91420FD020
:1096C00089B24620FFF774FE97F8F830C4F8D853F3
:1096D000013B87F8F830042304F8123C01226FE7BD
:1096E00034F80C1CB4F8CE238A4203D05020FFF784
:1096F0005FFEE9E714F8141C94F8D0238A4206D0E0
:10970000B1FA81F149094920FFF752FEDCE7142242
:1097100087F8F8201C4A9342B7DC762EA0D173203C
:10972000FFF7F0FB032304F8123CC4F8D8530022DF
:1097300046E7732E94D0D4F8D813124B691A994285
:1097400098DC8DE7D4F8D8330E4AEB1A934287DDC4
:109750007620FFF7D7FB022304F8123CC4F8D85355
:1097600000222DE7002304F8123C1A4628E700BF28
:10977000702C00202E30002098010020F48F060865
:10978000A80200203F0D03003F420F00334DD4F8E4
:10979000E8632A2385F810310DF1020220230DF130
:1097A0000101304685F8113114F03BFF30B19DF8CE
:1097B00001109DF8027051EA070339D1552385F84D
:1097C0001231462385F81331202301A9304685F84C
:1097D000143114F020FF0346214813B1BDF80420D2
:1097E0009ABB20494DF00EF9B4F8D2731E4D87B3E1
:1097F0000DF10301304614F011FF50B39DF8031032
:109800000DF10602304614F075FE10B3BDF80620C7
:1098100016493B46BA420CBF20222A2228464DF068
:10982000F1F8B4F8D433A4F8EC3303B0BDE8F08316
:10983000304614F0DBFE394685F81201304614F04C
:10984000C1FE037885F81331BEE709494DF0DAF817
:10985000CAE7084928464DF0D5F8E2E7980100200C
:10986000AD02002016900608B10200200E900608F6
:1098700072DB06081590060838B50B680E4D5A1CA9
:109880000A6005221A700B6895F8FA200C46591CDC
:1098900021601A70236895F8FD20591C21601A7008
:1098A000B5F80011204645F033FB236895F80221F6
:1098B000591C21601A7038BD980100202DE9F0472D
:1098C0002DED028BFFF758FAC8B31E4B93F9FA003F
:1098D000012834DD93F82F411B4F9FED1C8A15465C
:1098E0008E1E02EB44084FF03209454504D1BDEC11
:1098F000028B2046BDE8F08737F802AB26F802AFAE
:1099000007EE90AAF8EEE70AB2EE040A60EE880AC3
:1099100056F0FAFABCEEC00ABAF10E0F10EE103A89
:109920009BB209D91933B3FBF9F39BB203EB830361
:1099300003EB83035B009BB225F8023BD5E70024D1
:10994000D5E700BF980100205E300020CDCCCC3D93
:1099500038B50D46FFF710FA044638B10C4890F8B8
:10996000FD30DB0704D5B0F8FE002880204638BD66
:10997000084A90F9FB30127B93FBF2F102FB1132A3
:109980000132013100F5987014F0C8FDEDE700BF19
:1099900098010020702C002000F01F0240090123D4
:1099A000032803FA02F304D004280CD0022805D0BF
:1099B0007047074A116C0B4313647047044A516C9B
:1099C0000B4353647047024A116B0B431363704798
:1099D0000038024000487047B82E00200E4B30B4CB
:1099E000DB68427801780D4CDB43C3F30223C3F1FB
:1099F0000403DBB202FA03F360181B0101F01F0538
:109A00000122490903F0F003AA4080F8003344F82A
:109A1000212030BC704700BF00ED00E000E100E015
:109A2000002878D02DE9F0418388B3FA83F3202B06
:109A3000174684B00446C3F11F0255D0364DDFF8F7
:109A4000E4804FF0004008EB020605EB820205F5CA
:109A5000886C30FA03F396F84060C2F800C405D071
:109A60002E4A106820EA03001060536120463AF045
:109A70003FFBA2882168B2FA82F2C2F11F0303F011
:109A8000FC0000F1804000F59C3003F003039C00D3
:109A90004FF00F0C01F13F4381680CFA04FC21EAFE
:109AA0000C01816003F57E0308EB8707D0F808C03E
:109AB000396D8DF80D10C3F38723A34043EA0C03DF
:109AC0004FF00041354421FA02F283600021012366
:109AD00002A88DF80E3002928DF80C10FEF790FA65
:109AE00095F84434F02B02D804B0BDE8F0810C4B5B
:109AF0009B5D8DF80430F02103224FF4807301A8A0
:109B000085F844148DF80520ADF80630FFF766FFA0
:109B100004B0BDE8F0817047702C0020003C01408B
:109B2000F0900608FC13060800286BD0F0B5838877
:109B3000B3FA83F3202B85B00446C3F11F024CD047
:109B4000314D32484FF00041104405EB820205F2DE
:109B50004C4731FA03F390F84060C2F8007405D026
:109B60002B4A116821EA030111605361204600214C
:109B70003AF0BEFAA3882268B3FA83F4C4F11F0353
:109B800003F0FC0101F1804101F59C3103F0030376
:109B900098000F2702F13F438A68874022EA0702B4
:109BA00003F57E038A60C3F38723834088684FF000
:109BB00000420343354422FA04F48B604FF44062C0
:109BC000012302A88DF80E300294ADF80C20FEF7A8
:109BD00017FA95F84434F02B01D805B0F0BD0D4BC1
:109BE0009B5D8DF80430F02103224FF4807301A8AF
:109BF00085F844148DF80520ADF80630FFF7EEFE29
:109C000005B0F0BD704700BF702C0020FC130608A3
:109C1000003C0140F0900608002869D0F0B5838828
:109C2000B3FA83F3202B85B00446C3F11F024AD058
:109C3000304E314D16444FF0004005EB820230FAB1
:109C400003F396F84060C2F8001405D02B4A11685F
:109C500021EA030111605361204600213AF048FADD
:109C6000A3882268B3FA83F4C4F11F0303F0FC0154
:109C700001F1804101F59C3103F0030398000F27A7
:109C800002F13F438A68874022EA070203F57E0318
:109C90008A60C3F38723834088684FF00042034300
:109CA000354422FA04F48B604FF40062012302A8C9
:109CB0008DF80E300294ADF80C20FEF7A1F995F85E
:109CC0004434F02B01D805B0F0BD0D4B9B5D8DF8F1
:109CD0000430F02103224FF4807301A885F8441466
:109CE0008DF80520ADF80630FFF778FE05B0F0BD21
:109CF000704700BFFC130608702C0020003C014098
:109D0000F0900608474B5B68C3F308032DE9F04168
:109D1000002B64D1EFF31183002B60D1424A434CF6
:109D200052F8D01CA06852F8D03C9942F8D1D2F831
:109D300058349842F4D8D2F854544FF47A7404FB4F
:109D400005F3181AB0FBF5F004FB0101354D374857
:109D500010264FF47A7401276B68C3F30803EBB93C
:109D6000EFF31183D3B952F8D03CD0F808E052F8A1
:109D7000D0CC6345F7D1D2F858C4E645F3D8D2F831
:109D8000548404FB08FCACEB0E0CBCFBF8FC04FB9D
:109D900003C35B1A772BDFD9BDE8F081EFF3118E97
:109DA00086F31288D0F808800368DB0344BFC2F84A
:109DB0005074D0F8088052F8D0CCD2F850345FFA02
:109DC0008EFE8EF31188D2F854E4634404FB0EFC3B
:109DD000ACEB080CBCFBFEFC04FB03C3D9E7EFF3C0
:109DE0001180102383F3128810490F4A8D680B6885
:109DF000DC0342BF0123C2F850348D6852F8D03CD6
:109E0000D2F85014C0B280F31188D2F854444FF401
:109E10007A70194400FB04F35B1BB3FBF4F300FB03
:109E2000013193E700ED00E0702C002010E000E02D
:109E3000484B5B68C3F308032DE9F041002B65D163
:109E4000EFF31183002B61D1434A444C52F8D01CEC
:109E5000A06852F8D03C9942F8D1D2F858349842D0
:109E6000F4D8D2F854544FF47A7404FB05F3181A5A
:109E7000B0FBF5F004FB0101364D384810264FF4D5
:109E80007A7401276B68C3F30803F3B9EFF3118306
:109E9000DBB952F8D03CD0F808E052F8D0CC63459A
:109EA000F7D1D2F858C4E645F3D8D2F8548404FB6D
:109EB00008FCACEB0E0CBCFBF8FC04FB03C35B1A08
:109EC000B3F57A7FDED3BDE8F081EFF3118E86F330
:109ED0001288D0F808800368DB0344BFC2F85074CE
:109EE000D0F8088052F8D0CCD2F850345FFA8EFE09
:109EF0008EF31188D2F854E4634404FB0EFCACEBFF
:109F0000080CBCFBFEFC04FB03C3D8E7EFF3118095
:109F1000102383F3128811490F4A8D680B68DC0304
:109F200042BF0123C2F850348D6852F8D03CD2F8B9
:109F30005014C0B280F31188D2F854444FF47A70B0
:109F4000194400FB04F35B1BB3FBF4F300FB01318A
:109F500092E700BF00ED00E0702C002010E000E070
:109F60002DE9F84FBA4C94F85C140546C1F3400152
:109F7000D4F864043EF03AFD94F85C14D4F860041C
:109F8000C94301F001013EF031FD002D00F0CD800C
:109F90006E1EB04FB04D5FFA86FB4FF01008D4F83C
:109FA00064043EF007FDD4F860043EF003FDB4F80D
:109FB0006C34002B40F0438194F86E14D4F8700494
:109FC0003EF014FD4FF0FA094FF47A704FF0010C97
:109FD0007B68C3F30803002B40F00881EFF3118383
:109FE000002B40F0038154F8D02CA96854F8D03CE1
:109FF0009A42F8D1D4F858349942F4D8D4F8546439
:10A0000000FB06F35B1AB3FBF6F300FB02327B683E
:10A01000C3F30803002B40F0A880EFF31183002B5B
:10A0200040F0A38054F8D03CD5F808A054F8D01CD8
:10A030008B42F7D1D4F858148A45F3D8D4F8546435
:10A0400000FB06F1A1EB0A01B1FBF6F100FB0313E3
:10A050009B1AB3F57A7FDAD3B9F10109B8D1D4F8F4
:10A0600064043EF0A7FCD4F860043EF0A3FCB4F80E
:10A070006C34002B40F0D78094F86E14D4F8700440
:10A0800081F001013EF0B2FC4FF0FA0C4FF47A700F
:10A090004FF0010E7B68C3F30803002B40F086806D
:10A0A000EFF31183002B40F0818054F8D02CA96885
:10A0B00054F8D03C9A42F8D1D4F858349942F4D8A4
:10A0C000D4F8549400FB09F35B1AB3FBF9F300FBDB
:10A0D00002327B68C3F308034BBBEFF3118333BB3E
:10A0E00054F8D03CD5F808A054F8D01C8B42F7D1D6
:10A0F000D4F858148A45F3D8D4F8549400FB09F1E5
:10A10000A1EB0A01B1FBF9F100FB03139B1AB3F5B4
:10A110007A7FDED3BCF1010CBCD10BF1FF365FFAC4
:10A1200086FBBBF1FF0F7FF43AAFBDE8F88FEFF38A
:10A13000118988F31288AE682B68DB0344BFC4F82A
:10A1400050E4AE6854F8D03CD4F850145FFA89F962
:10A1500089F31188D4F854940B4400FB09F1891B4E
:10A16000B1FBF9F100FB0313D0E7EFF3118E88F395
:10A170001288D5F808A02B68D90344BFC4F850C48E
:10A18000D5F808A054F8D03CD4F850145FFA8EFEED
:10A190008EF31188D4F854640B4400FB06F1A1EB54
:10A1A0000A01B1FBF6F100FB031351E7EFF3118154
:10A1B00088F31288D5F808902B68DA0344BFC4F8F6
:10A1C00050E4D5F8089054F8D03CD4F85024C9B2E3
:10A1D00081F31188D4F854141A4400FB01F3A3EB63
:10A1E0000903B3FBF1F300FB023272E7EFF31181D5
:10A1F00088F31288AE682B68DB0344BFC4F850C4F0
:10A20000AE6854F8D03CD4F85024C9B281F3118818
:10A21000D4F854141A4400FB01F39B1BB3FBF1F375
:10A2200000FB0232F3E6D4F88834002B3FF42CAF65
:10A23000D4F87434C3F8009084F8859424E7D4F8F3
:10A240008834002B3FF4BEAE3AF082FDBAE600BF80
:10A25000702C002000ED00E010E000E02DE9F84F48
:10A26000B74CB84F94F85C14D4F86404B64DC1F3FD
:10A2700040013EF0BBFB94F85C14D4F86004C94381
:10A2800001F001013EF0B2FB4FF0050B4FF010085A
:10A29000D4F864043EF08EFBD4F860043EF08AFBF0
:10A2A000B4F86C34002B40F0438194F86E14D4F869
:10A2B00070043EF09BFB32264FF47A704FF0010C95
:10A2C0007B68C3F30803002B40F00781EFF3118391
:10A2D000002B40F0028154F8D02CA96854F8D03CEF
:10A2E0009A42F8D1D4F858349942F4D8D4F854E4C6
:10A2F00000FB0EF35B1AB3FBFEF300FB02327B683C
:10A30000C3F30803002B40F0A780EFF31183002B69
:10A3100040F0A28054F8D03CD5F808A054F8D01CE6
:10A320008B42F7D1D4F858148A45F3D8D4F854E4C2
:10A3300000FB0EF1A1EB0A01B1FBFEF100FB0313E0
:10A340009B1AB3F57A7FDAD3013EB9D1D4F864040D
:10A350003EF030FBD4F860043EF02CFBB4F86C34D3
:10A36000002B40F0DA8094F86E14D4F8700481F079
:10A3700001013EF03BFB4FF0320C4FF47A700126A6
:10A380007B68C3F30803002B40F08780EFF3118351
:10A39000002B40F0828054F8D02CA96854F8D03CAF
:10A3A0009A42F8D1D4F858349942F4D8D4F8549455
:10A3B00000FB09F35B1AB3FBF9F300FB02327B6885
:10A3C000C3F308033BBBEFF3118323BB54F8D03C2A
:10A3D000D5F808A054F8D01C8B42F7D1D4F8581403
:10A3E0008A45F3D8D4F8549400FB09F1A1EB0A0193
:10A3F000B1FBF9F100FB03139B1AB3F57A7FDED3AF
:10A40000BCF1010CBCD10BF1FF3616F0FF0B7FF451
:10A410003FAFBDE8F88FEFF3118988F31288D5F8C4
:10A4200008A02B68DB0344BFC4F85064D5F808A02B
:10A4300054F8D03CD4F850145FFA89F989F31188A4
:10A44000D4F854940B4400FB09F1A1EB0A01B1FBD1
:10A45000F9F100FB0313CFE7EFF3118E88F31288B5
:10A46000D5F808A02B68D90344BFC4F850C4D5F868
:10A4700008A054F8D03CD4F850145FFA8EFE8EF346
:10A480001188D4F854E40B4400FB0EF1A1EB0A014F
:10A49000B1FBFEF100FB031352E7EFF3118188F3E8
:10A4A0001288D5F808902B68DA0344BFC4F85064CA
:10A4B000D5F8089054F8D03CD4F85024C9B281F3B0
:10A4C0001188D4F854141A4400FB01F3A3EB0903D8
:10A4D000B3FBF1F300FB023271E7EFF3118188F374
:10A4E0001288D5F808E02B68DB0344BFC4F850C4D9
:10A4F000D5F808E054F8D03CD4F85024C9B281F320
:10A500001188D4F854141A4400FB01F3A3EB0E0392
:10A51000B3FBF1F300FB0232F1E6D4F88834002BF0
:10A520003FF429AFD4F874341E6084F8856422E7C0
:10A53000D4F88834002B3FF4BEAE3AF009FCBAE6FA
:10A54000702C002000ED00E010E000E010B4B8B185
:10A550000D4CD4F88C34102B05D15DF8044B05213B
:10A5600000203AF0ADB803EB4302224482F8911484
:10A5700001210B4482F8900482F89214C4F88C34C0
:10A580005DF8044B704700BF702C002000285FD09E
:10A590000368374A2DE9F04103F13F4404F57E0496
:10A5A00002EB9422012492F8382002F01F05520990
:10A5B000032A04FA05F456D0042A4FD0022A48D0C0
:10A5C0008588B5FA85F0C0F11F00C0F3CC0603EB17
:10A5D000860600F0070082000F24306A944020EACB
:10A5E00004003062306A01FA02F202430021326252
:10A5F0004FF0010E0A464FF0030C02270EFA02F844
:10A6000038EA050002F101021CD118680CFA01F4C5
:10A6100020EA04001860186807FA01F606431E6075
:10A620009E6826EA04069E6098689860586820EA4A
:10A630000800586058685860D86820EA0400D8605C
:10A64000D868D860102A01F10201D7D1BDE8F081A5
:10A650007047084A556C2C435464B1E7054A156BA2
:10A660002C431463ACE7034A156C2C431464A7E72E
:10A67000FC1306080038024070B5464E96F8C044F8
:10A6800004EB440306EBC303650093F8C434032BC7
:10A690006ED8DFE803F059291E02254406EBC505F4
:10A6A000D5F8C804002870D196F824359C425FD0B4
:10A6B000013404F00302934286F8C02458D002EB20
:10A6C000420406EBC4040223C4F8C80484F8C4346A
:10A6D00070BD2B1906EBC303D3F8C82472B1013A3D
:10A6E000C3F8C824002070BD2B1906EBC303D3F8B0
:10A6F000C824002AF3D1022283F8C424254406EB9F
:10A70000C50595F8D034013BDBB285F8D0348BBB5E
:10A71000214B96F82465D3F83411D5F8CC04621C8B
:10A7200002F003024B1E0324B242034485F8C444E2
:10A73000B3FBF1F0C5F8C8041AD0994218D8013813
:10A74000C5F8C804012070BD40F05AFA80B1124B20
:10A750002C44D3F8342106EBC404012102F51C5328
:10A7600084F8C4140F33B3FBF2F3C4F8C83470BDDB
:10A77000012070BD084BD3F83421012002F2E733E9
:10A78000B3FBF2F3C5F8C83470BD0138C5F8C8048E
:10A79000002070BD702C0020980100202DE9F04FA2
:10A7A000B44CB54F95B0002305460E464FF4F072F9
:10A7B000202104F5A560019584F8253584F8263517
:10A7C00056F0CBFD202104F5E1604FF4F07256F015
:10A7D000C4FDAA49B34632254FF0100C4FF47A70ED
:10A7E00001267B68C3F30803002B40F0BC80EFF325
:10A7F0001183002B40F0B78054F8D02CD1F808809A
:10A8000054F8D03C9A42F7D1D4F858349845F3D84C
:10A81000D4F8549400FB09F3A3EB0803B3FBF9F35A
:10A8200000FB02327B68C3F30803002B7AD1EFF3FD
:10A830001183002B76D154F8D03CD1F808A054F8FD
:10A84000D08C4345F7D1D4F85884C245F3D8D4F816
:10A85000549400FB09F8A8EB0A08B8FBF9F800FBD0
:10A8600003839B1AB3F57A7FDCD3013DB9D194F809
:10A87000E928002A51D094F8EA38013B022B4CD841
:10A8800003EB830004EBC0017D4D91F8847905EB67
:10A89000C0004FF0010C022FC4F8EC0884F874C912
:10A8A00000F0B882DBB204EB0313D3F8FC39C1F833
:10A8B000883993B302234FF4807081F88439A5F16D
:10A8C00088034C3DA1F89009C1F89C39C1F8A05902
:10A8D0001509013D032D02F00F0200F27E82694F3F
:10A8E00007EB4503988D40FA02F3DB0740F17582D0
:10A8F000012303FA02F2013A10403D4454F0EEFA0B
:10A9000095F83420604B104403EBC000C4F8F40801
:10A910008379002B48D0412B46D06FF0010015B051
:10A92000BDE8F08FEFF311898CF31288D1F808A0FD
:10A930000B68DB0344BFC4F85064D1F808A054F896
:10A94000D03CD4F850845FFA89F989F31188D4F89F
:10A950005494434400FB09F8A8EB0A08B8FBF9F843
:10A9600000FB03837DE7EFF311888CF31288D1F8A5
:10A9700008900B68DA0344BFC4F85064D1F808901B
:10A9800054F8D03CD4F850245FFA88F888F3118842
:10A99000D4F854841A4400FB08F3A3EB0903B3FB77
:10A9A000F8F300FB02323DE72323C380092139F08D
:10A9B0009FFBD4F8F43813B11A689B881383D4F83A
:10A9C0007023324BB3EB920F80F02A82B3EBD20F9D
:10A9D00080F02882B3EB121F80F02882B3EB521F65
:10A9E00080F02882B3EB921F80F02882B3EBD21F55
:10A9F00080F02882B3EB122F80F026824FF4807211
:10AA000000230DF10D01FF20A4F8F0280122CDE96B
:10AA10000413CDE90833CDE90A33D4F8EC188DF8E6
:10AA20000D000D9306928DF81C208DF83020EFF369
:10AA30001180102383F31288D4F8EC381B6A002BA2
:10AA400000F0CF81069B04AD2A461BB1D3691432B6
:10AA5000002BFBD10B6A002B00F00A82996839B9F0
:10AA60009A4218D0196899B15B6899680029F7D0A3
:10AA70001433F3E7702C002000ED00E010E000E05C
:10AA8000F4350020FC130608582E0020404B4C00E3
:10AA9000B44AC3E90025C0B280F31188D4F8EC1899
:10AAA0000B6A002BFCD18C220120CDE908330DF17B
:10AAB0000E080DF10F0A05938DF81C300D931093BD
:10AAC00012938DF80E2000230022CDE90E23CDF83D
:10AAD000108006900B908DF830008DF84400CDF872
:10AAE00028A0EFF31180102383F31288D4F8EC38F8
:10AAF0001B6A002B00F07E81069B2A461BB1D3699E
:10AB00001432002BFBD10B6A002B00F0B181996845
:10AB100039B993420AD0196829B15B68996800294C
:10AB2000F7D01433F3E78F4AC3E90025C3B283F3A8
:10AB30001188D4F8EC28136A002BFCD19DF80F3053
:10AB40001B2B40F08781D4F8F438012284F82525A6
:10AB50000BB12322DA80DFF80C92402248460A210A
:10AB60003FF072FF8A21002301228DF80E10002091
:10AB70000021CDE90E01CDE90833D4F8EC18CDF869
:10AB80001080CDF828A005938DF81C300D931093FC
:10AB9000129306920B928DF830208DF84420EFF33B
:10ABA0001180102383F31288D4F8EC381B6A002B31
:10ABB00000F02881069B2A461BB1D3691432002B72
:10ABC000FBD10B6A002B00F05081996839B9934290
:10ABD00009D0196829B15B6899680029F7D0143346
:10ABE000F3E7C3E90095C3B283F31188D4F8EC28E6
:10ABF000136A002BFCD19DF80F2094F8E878C2F37B
:10AC0000801284F82C2A002F00F0CB80022F00F055
:10AC1000AF80D4F870335449B1EB930F80F01681B4
:10AC2000B1EBD30F80F00081B1EB131F80F00081F6
:10AC3000B1EB531F80F00081B1EB931F80F00081D6
:10AC4000B1EBD31F80F00481B1EB132F34BF4FF46D
:10AC50008077802794F8DC13A4F82E7A18290ED177
:10AC60004249A4F8E0B35B08B3FBF7F3A1FB03137D
:10AC70005B0BA4F8E223A4F8E473A4F8E6333948A4
:10AC8000A4F8F078022200213FF0DEFEC82039F05F
:10AC90005FFED4F8EC084FF0800B0026002700235D
:10ACA0000122CDE90E67CDE908338DF80EB0CDF85D
:10ACB0001080CDF828A005938DF81C300D931093CB
:10ACC000129306920B928DF830208DF84420EFF30A
:10ACD0001181102383F31288D4F8EC381B6A002BFF
:10ACE00037D0069B2A461BB1D3691432002BFBD107
:10ACF000006A002800F0B68083683BB9824209D020
:10AD000003682BB140688368002BF7D01430F3E759
:10AD1000C0E90095C9B281F31188D4F8EC08036A40
:10AD2000002BFCD19DF80F3013F00203B7D101982E
:10AD300041788278007884F8300AC1F12001C2F1AC
:10AD40001002184684F8311A84F8322A15B0BDE88A
:10AD5000F08F0562C9B281F31188024850F060FE9D
:10AD6000DBE700BF5C350020809698005917B7D10B
:10AD7000D4F870334049B1EB930FBFF46BAFB1EB34
:10AD8000D30F51D2B1EB131F52D2B1EB531F53D299
:10AD9000B1EB931F54D2B1EBD31F34BF80274027B0
:10ADA00058E7D4F870333549B1EB930F4ED2B1EB7D
:10ADB000D30F39D2B1EB131F3AD2B1EB531F3BD2B1
:10ADC000B1EB931F3CD2B1EBD31F41D2B1EB132FA8
:10ADD00034BF4FF4807780273CE70020C4F8F408A4
:10ADE000E4E504ADC0B20D6280F31188244850F050
:10ADF00017FE53E60D62C3B283F31188204850F06A
:10AE00000FFE96E60D62C3B283F31188484650F0F8
:10AE100007FEEBE691F89139634481F8913957E5E3
:10AE20000222EDE50422EBE5042713E70822E7E51B
:10AE300008270FE71022E3E510270BE72022DFE5C4
:10AE4000202707E74022DBE58022D9E5022701E73A
:10AE50004027FFE6D4F8F408202139F049F94FF0F3
:10AE6000FF305CE5C0F80090FFDEC3F80090FFDE25
:10AE7000034A1A60FFDE00BF002D3101404B4C0039
:10AE80005C35002038B50C4C0546A11CD52247F096
:10AE9000AFFF2B68A342C5E90043A3EB04000AD02F
:10AEA00004F14002611C2960237802F8013BD5E9D6
:10AEB0000041A142F6D138BDA4360020F0B40D689F
:10AEC00000240CE0BCF1050F18D8A0F137030A2BC1
:10AED00014D104EB840415F8010B03EB4404A0F136
:10AEE0003003DEB2092EA0F16107A0F1410CF0D9C8
:10AEF000052FE7D8A0F157030A2BEAD00D601460A4
:10AF0000F0BC704710B5204B84B0C82403F6742100
:10AF100003F635222128CDE9022183F8344A18D0DE
:10AF20000CD802281ED0082825D102A801900AF0CA
:10AF3000DFFC0198FFF7A6FF04B010BD29281AD145
:10AF400002A801900AF08EFB0198FFF79BFF04B066
:10AF500010BD02A801900AF0CFFB0198FFF792FF05
:10AF600004B010BD02A801900AF010FD0198FFF78F
:10AF700089FF04B010BD02A801900AF02FFC0198CF
:10AF8000FFF780FF04B010BD702C00200144884200
:10AF90000ED010B40346074C074813F8012B04FBEE
:10AFA00000F0994280EA0200F7D15DF8044B704747
:10AFB0000148704793010001C59D1C81094B93F81E
:10AFC0009A30042B08D9053B032B08D801231A46D5
:10AFD00000B103701046704700230122F8E70023F8
:10AFE0001A46F5E7702C00209FED727A07EE901A52
:10AFF00020EE070AF8EE677A27EE800AFDEEC07AA7
:10B0000017EE903A2033402B00F2C480DFED6A7ACD
:10B01000B4EEE70AF1EE10FAF0EE407A0CDD9FEDA7
:10B02000676ADFED676AB0EE677AB4EEE67AF1EE52
:10B0300010FA77EEC67AF6DC9FED627AF4EEC77A04
:10B04000F1EE10FA0CD59FED5D6ADFED5F6AB0EEB0
:10B05000677AB4EEE67AF1EE10FA77EE867AF6D4F5
:10B060009FED5A7AF4EEC77AF1EE10FA00F38A8077
:10B070009FED577AF4EEC77AF1EE10FA44BF9FEDD8
:10B08000517A77EE677A27EEA76ADFED525A9FED85
:10B09000527ADFED526AA6EE257A67EE865AE6EE20
:10B0A000076AB6EE007AE5EEA67A27EE877ADFED3C
:10B0B000476A70EE267ABDEEE76A16EE103A203344
:10B0C000402B64D8B4EEE60AF1EE10FA0CDDDFEDA9
:10B0D0003B5A9FED3B6AF0EE676AF4EEC66AF1EE0A
:10B0E00010FA77EEE57AF6DCDFED366AF4EEE67A12
:10B0F000F1EE10FA0CD5DFED315A9FED336AF0EE28
:10B10000676AF4EEC66AF1EE10FA77EEA57AF6D425
:10B11000DFED2E6AF4EEE67AF1EE10FA3DDDDFEDBA
:10B12000266A76EEE77A67EEA75A9FED2A5A9FEDD8
:10B130002A6ADFED2A6AA5EE856A27EEA55AE5EEB2
:10B14000866AB8EE006AE5EE267A67EE867AC7EE82
:10B15000206AB7EE006A76EE865A76EE666A86EE6A
:10B16000257A80ED091A67EE277A66EE876AC0EDC8
:10B17000017AC0ED037A80ED007A80ED027AC0EDAD
:10B18000046A70479FED0C7A77EE677A7BE7DFED14
:10B19000147ADCE79FED127A89E7DFED0D6AF4EEB1
:10B1A000E67AF1EE10FA44BFDFED066A76EEE77A52
:10B1B000B9E700BF27D4D236DB0F4940DB0FC940C7
:10B1C000E4CB1641DB0F49C0E4CB16C1DB0FC93F0E
:10B1D000DB0FC9BF92E741B99730083C15A82ABEDA
:10B1E000000000002DE9F843DFF8E0E3E24CDEF870
:10B1F000B83A14F8C85C07EE903AF8EE670A2DEDFD
:10B20000028B44ED330A002D74D1DFF8C4C314F867
:10B21000B87C44F8BC5C9CF80050002F40D034F857
:10B22000C23C9FEDD66A9FEDD67A07EE903AF8EED3
:10B23000677A20EE877AC6EE276A0023012FC4F8CA
:10B240009C3076EE876AC7EE267AC4ED287A27D03E
:10B25000022FC4F8A430C4ED2A7A21D0032FC4F8F9
:10B26000AC30C4ED2C7A1BD0042FC4F8B430C4ED3C
:10B270002E7A15D0052FC4F8BC30C4ED307A0FD02B
:10B28000062FC4F8C430C4ED327A09D0072FC4F8B1
:10B29000CC30C4ED347A03D0C4F8D430C4ED367A5F
:10B2A0009EF8BA309FEDB76A9FEDB77A9FEDB70A67
:10B2B00007EE903AF8EEE77A9CF8583BC6EE276A1C
:10B2C0001D4415FB07F7FFB207EE907A60EE870A80
:10B2D000F8EEE77AC4ED256AA7EEA00A54F0B6FDB1
:10B2E000BDEC028BFCEEC07A17EE903A84F89830F1
:10B2F000BDE8F883BCEEE06A9FEDA57A14F8C73C80
:10B3000034F8C42C9FEDA32ADFEDA36ADFF8C0C296
:10B3100014F8B87C44F8BCCCF8EE465A07EE903AE4
:10B3200087EE255A8CF8005007EE102A34F8C62C08
:10B330008CED025A16EE103AF8EE677A06EE102AF5
:10B34000B8EEC77A27EE822AB8EE466A67EE266A1A
:10B35000CCF81430012322EE252ACCED017A8CEDB5
:10B36000036ACCED046A04F8C03C002F98D0DFEDEE
:10B370008B7A9FED8B4ADFED8B5AC7EE871AC7EBAE
:10B380000716A7EB07190CEBC6064FEAC9094FF0E1
:10B390000008B1EE611A9FED846A09EB06009FED8B
:10B3A000833ADFED833ADFED836A0346002207EE3E
:10B3B000902AB8EEE77A27EE027AFDEEC77A17EE0A
:10B3C000901A2031402900F2D080B4EEC47AF1EE18
:10B3D00010FAF0EE477A0CDDDFED774A9FED775AF1
:10B3E000F0EE672AF4EEC52AF1EE10FA77EEE47A71
:10B3F000F6DCF4EEE57AF1EE10FA0CD5DFED6E4AEC
:10B400009FED6F5AF0EE672AF4EEC52AF1EE10FABE
:10B4100077EEA47AF6D4F4EEC67AF1EE10FA40F3A1
:10B420009A8074EE677A27EEA75AB0EE630AA5EE0B
:10B43000030ADFED644AE5EE004A65EE272AB7EE1F
:10B44000005AE2EEA47AB0EE458AF0EE454AA1EE4B
:10B45000A78AE1EE274AC5EE088A84EE880A77EECD
:10B46000067ABDEEE75A15EE101A203140296FD842
:10B47000B4EEC67AF1EE10FA0CDD9FED4F5A9FED57
:10B480004F7AF0EE674AF4EEC74AF1EE10FA77EE23
:10B49000C57AF6DCF4EEE57AF1EE10FA0CD59FED04
:10B4A000465A9FED477AF0EE674AF4EEC74AF1EE4E
:10B4B00010FA77EE857AF6D4F4EEC67AF1EE10FA49
:10B4C0003CDD74EE677A27EEA75AF0EE632AE5EECC
:10B4D000032A9FED3C7AA5EE227A65EE274AB8EE64
:10B4E000005AE4EE877A67EE857A87EE887A013231
:10B4F000AA4203F1280343ED048A03ED037A03ED26
:10B50000017A43ED028A83ED000AC3ED056AC3EDBB
:10B51000026AC3ED016AC3ED046AC3ED036AFFF674
:10B5200046AF783086427FF43AAF08F57078B8F5C8
:10B53000346F06F570767FF42EAF70E69FED227AB9
:10B54000F4EEC77AF1EE10FA48BF75EEE77ABAE783
:10B55000F0EE667AC9E79FED1C5AF4EEC57AF1EE7B
:10B5600010FA48BF75EEE77A5DE7B7EE000AF0EE35
:10B57000408AB0EE408A72E7683D002083F9223E9F
:10B58000BD378635555555406E12833A48E1FA3E2F
:10B590000060EA4827D4D2360AD7233C000048424C
:10B5A000DB0F4940DB0F49C0DB0FC93F92E741B9D0
:10B5B0009730083C00000000DB0FC940E4CB164187
:10B5C000E4CB16C115A82ABEDB0FC9BF702C002022
:10B5D000547D00202DE9F84F07EE900A2DED068BE3
:10B5E0009FEDF27AF24DDFEDF36AB5F8DC3095F8B5
:10B5F000E260C5F8F060B8EE679A0AEE103A87EE9E
:10B60000095AB5F8DE30C5F8340195F8A82AEA4C95
:10B6100008EE103AB5F8E030DFEDE87ADFEDE83A11
:10B62000DFEDE84A9FEDE86AD5EDEAAAB8EE4AAA4E
:10B6300008EE903A3AEE0A7AB8EEC88AF8EEE88A4E
:10B64000B4EEC78A68EEA77AF1EE10FAB4EEE65AC5
:10B65000B8BFB0EE478AF1EE10FAC5ED397A58BF9F
:10B6600007EE906AF6EE005A58BFF8EEE77A65EEFC
:10B67000256A5CBFB7EE007AC7EE279A4FF0000349
:10B6800044BFC5F8F0301E46C5F8F43086EE887A1F
